{
  "_format": "hh-sol-artifact-1",
  "contractName": "Warriors",
  "sourceName": "contracts/WarriorsNFT.sol",
  "abi": [
    {
      "inputs": [
        {
          "internalType": "address",
          "name": "initialOwner",
          "type": "address"
        }
      ],
      "stateMutability": "nonpayable",
      "type": "constructor"
    },
    {
      "inputs": [
        {
          "internalType": "address",
          "name": "sender",
          "type": "address"
        },
        {
          "internalType": "uint256",
          "name": "tokenId",
          "type": "uint256"
        },
        {
          "internalType": "address",
          "name": "owner",
          "type": "address"
        }
      ],
      "name": "ERC721IncorrectOwner",
      "type": "error"
    },
    {
      "inputs": [
        {
          "internalType": "address",
          "name": "operator",
          "type": "address"
        },
        {
          "internalType": "uint256",
          "name": "tokenId",
          "type": "uint256"
        }
      ],
      "name": "ERC721InsufficientApproval",
      "type": "error"
    },
    {
      "inputs": [
        {
          "internalType": "address",
          "name": "approver",
          "type": "address"
        }
      ],
      "name": "ERC721InvalidApprover",
      "type": "error"
    },
    {
      "inputs": [
        {
          "internalType": "address",
          "name": "operator",
          "type": "address"
        }
      ],
      "name": "ERC721InvalidOperator",
      "type": "error"
    },
    {
      "inputs": [
        {
          "internalType": "address",
          "name": "owner",
          "type": "address"
        }
      ],
      "name": "ERC721InvalidOwner",
      "type": "error"
    },
    {
      "inputs": [
        {
          "internalType": "address",
          "name": "receiver",
          "type": "address"
        }
      ],
      "name": "ERC721InvalidReceiver",
      "type": "error"
    },
    {
      "inputs": [
        {
          "internalType": "address",
          "name": "sender",
          "type": "address"
        }
      ],
      "name": "ERC721InvalidSender",
      "type": "error"
    },
    {
      "inputs": [
        {
          "internalType": "uint256",
          "name": "tokenId",
          "type": "uint256"
        }
      ],
      "name": "ERC721NonexistentToken",
      "type": "error"
    },
    {
      "inputs": [
        {
          "internalType": "address",
          "name": "owner",
          "type": "address"
        }
      ],
      "name": "OwnableInvalidOwner",
      "type": "error"
    },
    {
      "inputs": [
        {
          "internalType": "address",
          "name": "account",
          "type": "address"
        }
      ],
      "name": "OwnableUnauthorizedAccount",
      "type": "error"
    },
    {
      "anonymous": false,
      "inputs": [
        {
          "indexed": true,
          "internalType": "address",
          "name": "owner",
          "type": "address"
        },
        {
          "indexed": true,
          "internalType": "address",
          "name": "approved",
          "type": "address"
        },
        {
          "indexed": true,
          "internalType": "uint256",
          "name": "tokenId",
          "type": "uint256"
        }
      ],
      "name": "Approval",
      "type": "event"
    },
    {
      "anonymous": false,
      "inputs": [
        {
          "indexed": true,
          "internalType": "address",
          "name": "owner",
          "type": "address"
        },
        {
          "indexed": true,
          "internalType": "address",
          "name": "operator",
          "type": "address"
        },
        {
          "indexed": false,
          "internalType": "bool",
          "name": "approved",
          "type": "bool"
        }
      ],
      "name": "ApprovalForAll",
      "type": "event"
    },
    {
      "anonymous": false,
      "inputs": [
        {
          "indexed": false,
          "internalType": "uint256",
          "name": "_fromTokenId",
          "type": "uint256"
        },
        {
          "indexed": false,
          "internalType": "uint256",
          "name": "_toTokenId",
          "type": "uint256"
        }
      ],
      "name": "BatchMetadataUpdate",
      "type": "event"
    },
    {
      "anonymous": false,
      "inputs": [
        {
          "indexed": false,
          "internalType": "uint256",
          "name": "tokenId1",
          "type": "uint256"
        },
        {
          "indexed": false,
          "internalType": "uint256",
          "name": "tokenId2",
          "type": "uint256"
        },
        {
          "indexed": false,
          "internalType": "string",
          "name": "nextRarity",
          "type": "string"
        }
      ],
      "name": "MergeSuccess",
      "type": "event"
    },
    {
      "anonymous": false,
      "inputs": [
        {
          "indexed": false,
          "internalType": "uint256",
          "name": "_tokenId",
          "type": "uint256"
        }
      ],
      "name": "MetadataUpdate",
      "type": "event"
    },
    {
      "anonymous": false,
      "inputs": [
        {
          "indexed": true,
          "internalType": "address",
          "name": "previousOwner",
          "type": "address"
        },
        {
          "indexed": true,
          "internalType": "address",
          "name": "newOwner",
          "type": "address"
        }
      ],
      "name": "OwnershipTransferred",
      "type": "event"
    },
    {
      "anonymous": false,
      "inputs": [
        {
          "indexed": false,
          "internalType": "string",
          "name": "tokenURI",
          "type": "string"
        },
        {
          "indexed": false,
          "internalType": "uint256",
          "name": "uri",
          "type": "uint256"
        }
      ],
      "name": "TokenExistenceCheck",
      "type": "event"
    },
    {
      "anonymous": false,
      "inputs": [
        {
          "indexed": false,
          "internalType": "uint256",
          "name": "tokenId1",
          "type": "uint256"
        },
        {
          "indexed": false,
          "internalType": "uint256",
          "name": "tokenId2",
          "type": "uint256"
        }
      ],
      "name": "TokensBurned",
      "type": "event"
    },
    {
      "anonymous": false,
      "inputs": [
        {
          "indexed": true,
          "internalType": "address",
          "name": "from",
          "type": "address"
        },
        {
          "indexed": true,
          "internalType": "address",
          "name": "to",
          "type": "address"
        },
        {
          "indexed": true,
          "internalType": "uint256",
          "name": "tokenId",
          "type": "uint256"
        }
      ],
      "name": "Transfer",
      "type": "event"
    },
    {
      "inputs": [
        {
          "internalType": "address",
          "name": "to",
          "type": "address"
        },
        {
          "internalType": "uint256",
          "name": "tokenId",
          "type": "uint256"
        }
      ],
      "name": "approve",
      "outputs": [],
      "stateMutability": "nonpayable",
      "type": "function"
    },
    {
      "inputs": [
        {
          "internalType": "address",
          "name": "owner",
          "type": "address"
        }
      ],
      "name": "balanceOf",
      "outputs": [
        {
          "internalType": "uint256",
          "name": "",
          "type": "uint256"
        }
      ],
      "stateMutability": "view",
      "type": "function"
    },
    {
      "inputs": [
        {
          "internalType": "uint256",
          "name": "tokenId",
          "type": "uint256"
        }
      ],
      "name": "burn",
      "outputs": [],
      "stateMutability": "nonpayable",
      "type": "function"
    },
    {
      "inputs": [
        {
          "internalType": "uint256",
          "name": "tokenId1",
          "type": "uint256"
        },
        {
          "internalType": "uint256",
          "name": "tokenId2",
          "type": "uint256"
        }
      ],
      "name": "canMerge",
      "outputs": [
        {
          "internalType": "bool",
          "name": "",
          "type": "bool"
        }
      ],
      "stateMutability": "view",
      "type": "function"
    },
    {
      "inputs": [
        {
          "internalType": "uint256",
          "name": "tokenId1",
          "type": "uint256"
        },
        {
          "internalType": "uint256",
          "name": "tokenId2",
          "type": "uint256"
        }
      ],
      "name": "compareRarity",
      "outputs": [
        {
          "internalType": "bool",
          "name": "",
          "type": "bool"
        }
      ],
      "stateMutability": "view",
      "type": "function"
    },
    {
      "inputs": [],
      "name": "count",
      "outputs": [
        {
          "internalType": "uint256",
          "name": "",
          "type": "uint256"
        }
      ],
      "stateMutability": "view",
      "type": "function"
    },
    {
      "inputs": [
        {
          "internalType": "uint256",
          "name": "tokenId",
          "type": "uint256"
        }
      ],
      "name": "getApproved",
      "outputs": [
        {
          "internalType": "address",
          "name": "",
          "type": "address"
        }
      ],
      "stateMutability": "view",
      "type": "function"
    },
    {
      "inputs": [
        {
          "internalType": "string",
          "name": "currentRarity",
          "type": "string"
        }
      ],
      "name": "getNextRarity",
      "outputs": [
        {
          "internalType": "string",
          "name": "",
          "type": "string"
        }
      ],
      "stateMutability": "view",
      "type": "function"
    },
    {
      "inputs": [
        {
          "internalType": "address",
          "name": "owner",
          "type": "address"
        },
        {
          "internalType": "address",
          "name": "operator",
          "type": "address"
        }
      ],
      "name": "isApprovedForAll",
      "outputs": [
        {
          "internalType": "bool",
          "name": "",
          "type": "bool"
        }
      ],
      "stateMutability": "view",
      "type": "function"
    },
    {
      "inputs": [
        {
          "internalType": "string",
          "name": "uri",
          "type": "string"
        }
      ],
      "name": "isContentOwned",
      "outputs": [
        {
          "internalType": "bool",
          "name": "",
          "type": "bool"
        }
      ],
      "stateMutability": "view",
      "type": "function"
    },
    {
      "inputs": [
        {
          "internalType": "uint256",
          "name": "tokenId1",
          "type": "uint256"
        },
        {
          "internalType": "uint256",
          "name": "tokenId2",
          "type": "uint256"
        }
      ],
      "name": "mergeTokens",
      "outputs": [],
      "stateMutability": "nonpayable",
      "type": "function"
    },
    {
      "inputs": [],
      "name": "name",
      "outputs": [
        {
          "internalType": "string",
          "name": "",
          "type": "string"
        }
      ],
      "stateMutability": "view",
      "type": "function"
    },
    {
      "inputs": [],
      "name": "owner",
      "outputs": [
        {
          "internalType": "address",
          "name": "",
          "type": "address"
        }
      ],
      "stateMutability": "view",
      "type": "function"
    },
    {
      "inputs": [
        {
          "internalType": "uint256",
          "name": "tokenId",
          "type": "uint256"
        }
      ],
      "name": "ownerOf",
      "outputs": [
        {
          "internalType": "address",
          "name": "",
          "type": "address"
        }
      ],
      "stateMutability": "view",
      "type": "function"
    },
    {
      "inputs": [
        {
          "internalType": "address",
          "name": "recipient",
          "type": "address"
        },
        {
          "internalType": "uint256",
          "name": "tokenId",
          "type": "uint256"
        },
        {
          "internalType": "string",
          "name": "metadataURI",
          "type": "string"
        },
        {
          "internalType": "string",
          "name": "rarity",
          "type": "string"
        }
      ],
      "name": "payToMint",
      "outputs": [
        {
          "internalType": "uint256",
          "name": "",
          "type": "uint256"
        }
      ],
      "stateMutability": "payable",
      "type": "function"
    },
    {
      "inputs": [
        {
          "internalType": "uint256",
          "name": "",
          "type": "uint256"
        }
      ],
      "name": "rarityLevels",
      "outputs": [
        {
          "internalType": "string",
          "name": "",
          "type": "string"
        }
      ],
      "stateMutability": "view",
      "type": "function"
    },
    {
      "inputs": [
        {
          "internalType": "string",
          "name": "",
          "type": "string"
        }
      ],
      "name": "rarityMaxCount",
      "outputs": [
        {
          "internalType": "uint256",
          "name": "",
          "type": "uint256"
        }
      ],
      "stateMutability": "view",
      "type": "function"
    },
    {
      "inputs": [
        {
          "internalType": "string",
          "name": "",
          "type": "string"
        }
      ],
      "name": "rarityMintedCount",
      "outputs": [
        {
          "internalType": "uint256",
          "name": "",
          "type": "uint256"
        }
      ],
      "stateMutability": "view",
      "type": "function"
    },
    {
      "inputs": [],
      "name": "renounceOwnership",
      "outputs": [],
      "stateMutability": "nonpayable",
      "type": "function"
    },
    {
      "inputs": [
        {
          "internalType": "address",
          "name": "to",
          "type": "address"
        },
        {
          "internalType": "string",
          "name": "uri",
          "type": "string"
        }
      ],
      "name": "safeMint",
      "outputs": [],
      "stateMutability": "nonpayable",
      "type": "function"
    },
    {
      "inputs": [
        {
          "internalType": "address",
          "name": "from",
          "type": "address"
        },
        {
          "internalType": "address",
          "name": "to",
          "type": "address"
        },
        {
          "internalType": "uint256",
          "name": "tokenId",
          "type": "uint256"
        }
      ],
      "name": "safeTransferFrom",
      "outputs": [],
      "stateMutability": "nonpayable",
      "type": "function"
    },
    {
      "inputs": [
        {
          "internalType": "address",
          "name": "from",
          "type": "address"
        },
        {
          "internalType": "address",
          "name": "to",
          "type": "address"
        },
        {
          "internalType": "uint256",
          "name": "tokenId",
          "type": "uint256"
        },
        {
          "internalType": "bytes",
          "name": "data",
          "type": "bytes"
        }
      ],
      "name": "safeTransferFrom",
      "outputs": [],
      "stateMutability": "nonpayable",
      "type": "function"
    },
    {
      "inputs": [
        {
          "internalType": "address",
          "name": "operator",
          "type": "address"
        },
        {
          "internalType": "bool",
          "name": "approved",
          "type": "bool"
        }
      ],
      "name": "setApprovalForAll",
      "outputs": [],
      "stateMutability": "nonpayable",
      "type": "function"
    },
    {
      "inputs": [
        {
          "internalType": "bytes4",
          "name": "interfaceId",
          "type": "bytes4"
        }
      ],
      "name": "supportsInterface",
      "outputs": [
        {
          "internalType": "bool",
          "name": "",
          "type": "bool"
        }
      ],
      "stateMutability": "view",
      "type": "function"
    },
    {
      "inputs": [],
      "name": "symbol",
      "outputs": [
        {
          "internalType": "string",
          "name": "",
          "type": "string"
        }
      ],
      "stateMutability": "view",
      "type": "function"
    },
    {
      "inputs": [
        {
          "internalType": "uint256",
          "name": "",
          "type": "uint256"
        }
      ],
      "name": "tokenRarity",
      "outputs": [
        {
          "internalType": "string",
          "name": "",
          "type": "string"
        }
      ],
      "stateMutability": "view",
      "type": "function"
    },
    {
      "inputs": [
        {
          "internalType": "uint256",
          "name": "tokenId",
          "type": "uint256"
        }
      ],
      "name": "tokenURI",
      "outputs": [
        {
          "internalType": "string",
          "name": "",
          "type": "string"
        }
      ],
      "stateMutability": "view",
      "type": "function"
    },
    {
      "inputs": [
        {
          "internalType": "address",
          "name": "from",
          "type": "address"
        },
        {
          "internalType": "address",
          "name": "to",
          "type": "address"
        },
        {
          "internalType": "uint256",
          "name": "tokenId",
          "type": "uint256"
        }
      ],
      "name": "transferFrom",
      "outputs": [],
      "stateMutability": "nonpayable",
      "type": "function"
    },
    {
      "inputs": [
        {
          "internalType": "address",
          "name": "newOwner",
          "type": "address"
        }
      ],
      "name": "transferOwnership",
      "outputs": [],
      "stateMutability": "nonpayable",
      "type": "function"
    }
  ],
  "bytecode": "0x60806040526040518060a001604052806040518060400160405280600681526020017f436f6d6d6f6e000000000000000000000000000000000000000000000000000081525081526020016040518060400160405280600481526020017f526172650000000000000000000000000000000000000000000000000000000081525081526020016040518060400160405280600481526020017f457069630000000000000000000000000000000000000000000000000000000081525081526020016040518060400160405280600681526020017f4d7974686963000000000000000000000000000000000000000000000000000081525081526020016040518060400160405280600981526020017f4c6567656e646172790000000000000000000000000000000000000000000000815250815250600d9060056200014692919062000415565b503480156200015457600080fd5b50604051620046b2380380620046b283398181016040528101906200017a91906200056c565b806040518060400160405280600881526020017f57617272696f72730000000000000000000000000000000000000000000000008152506040518060400160405280600381526020017f57415200000000000000000000000000000000000000000000000000000000008152508160009081620001f8919062000818565b5080600190816200020a919062000818565b505050600073ffffffffffffffffffffffffffffffffffffffff168173ffffffffffffffffffffffffffffffffffffffff1603620002825760006040517f1e4fbdf700000000000000000000000000000000000000000000000000000000815260040162000279919062000910565b60405180910390fd5b62000293816200034f60201b60201c565b506004600b604051620002a69062000988565b9081526020016040518091039020819055506004600b604051620002ca90620009ef565b9081526020016040518091039020819055506004600b604051620002ee9062000a56565b9081526020016040518091039020819055506004600b604051620003129062000abd565b9081526020016040518091039020819055506002600b604051620003369062000b24565b9081526020016040518091039020819055505062000b3b565b6000600760009054906101000a900473ffffffffffffffffffffffffffffffffffffffff16905081600760006101000a81548173ffffffffffffffffffffffffffffffffffffffff021916908373ffffffffffffffffffffffffffffffffffffffff1602179055508173ffffffffffffffffffffffffffffffffffffffff168173ffffffffffffffffffffffffffffffffffffffff167f8be0079c531659141344cd1fd0a4f28419497f9722a3daafe3b4186f6b6457e060405160405180910390a35050565b82805482825590600052602060002090810192821562000462579160200282015b828111156200046157825182908162000450919062000818565b509160200191906001019062000436565b5b50905062000471919062000475565b5090565b5b808211156200049957600081816200048f91906200049d565b5060010162000476565b5090565b508054620004ab9062000607565b6000825580601f10620004bf5750620004e0565b601f016020900490600052602060002090810190620004df9190620004e3565b5b50565b5b80821115620004fe576000816000905550600101620004e4565b5090565b600080fd5b600073ffffffffffffffffffffffffffffffffffffffff82169050919050565b6000620005348262000507565b9050919050565b620005468162000527565b81146200055257600080fd5b50565b60008151905062000566816200053b565b92915050565b60006020828403121562000585576200058462000502565b5b6000620005958482850162000555565b91505092915050565b600081519050919050565b7f4e487b7100000000000000000000000000000000000000000000000000000000600052604160045260246000fd5b7f4e487b7100000000000000000000000000000000000000000000000000000000600052602260045260246000fd5b600060028204905060018216806200062057607f821691505b602082108103620006365762000635620005d8565b5b50919050565b60008190508160005260206000209050919050565b60006020601f8301049050919050565b600082821b905092915050565b600060088302620006a07fffffffffffffffffffffffffffffffffffffffffffffffffffffffffffffffff8262000661565b620006ac868362000661565b95508019841693508086168417925050509392505050565b6000819050919050565b6000819050919050565b6000620006f9620006f3620006ed84620006c4565b620006ce565b620006c4565b9050919050565b6000819050919050565b6200071583620006d8565b6200072d620007248262000700565b8484546200066e565b825550505050565b600090565b6200074462000735565b620007518184846200070a565b505050565b5b8181101562000779576200076d6000826200073a565b60018101905062000757565b5050565b601f821115620007c85762000792816200063c565b6200079d8462000651565b81016020851015620007ad578190505b620007c5620007bc8562000651565b83018262000756565b50505b505050565b600082821c905092915050565b6000620007ed60001984600802620007cd565b1980831691505092915050565b6000620008088383620007da565b9150826002028217905092915050565b62000823826200059e565b67ffffffffffffffff8111156200083f576200083e620005a9565b5b6200084b825462000607565b620008588282856200077d565b600060209050601f8311600181146200089057600084156200087b578287015190505b620008878582620007fa565b865550620008f7565b601f198416620008a0866200063c565b60005b82811015620008ca57848901518255600182019150602085019450602081019050620008a3565b86831015620008ea5784890151620008e6601f891682620007da565b8355505b6001600288020188555050505b505050505050565b6200090a8162000527565b82525050565b6000602082019050620009276000830184620008ff565b92915050565b600081905092915050565b7f436f6d6d6f6e0000000000000000000000000000000000000000000000000000600082015250565b6000620009706006836200092d565b91506200097d8262000938565b600682019050919050565b6000620009958262000961565b9150819050919050565b7f5261726500000000000000000000000000000000000000000000000000000000600082015250565b6000620009d76004836200092d565b9150620009e4826200099f565b600482019050919050565b6000620009fc82620009c8565b9150819050919050565b7f4570696300000000000000000000000000000000000000000000000000000000600082015250565b600062000a3e6004836200092d565b915062000a4b8262000a06565b600482019050919050565b600062000a638262000a2f565b9150819050919050565b7f4d79746869630000000000000000000000000000000000000000000000000000600082015250565b600062000aa56006836200092d565b915062000ab28262000a6d565b600682019050919050565b600062000aca8262000a96565b9150819050919050565b7f4c6567656e646172790000000000000000000000000000000000000000000000600082015250565b600062000b0c6009836200092d565b915062000b198262000ad4565b600982019050919050565b600062000b318262000afd565b9150819050919050565b613b678062000b4b6000396000f3fe6080604052600436106101c25760003560e01c806370a08231116100f7578063a22cb46511610095578063d204c45e11610064578063d204c45e146106c2578063d76d8950146106eb578063e985e9c51461071b578063f2fde38b14610758576101c2565b8063a22cb465146105f6578063afb0a3691461061f578063b88d4fde1461065c578063c87b56dd14610685576101c2565b80639515671f116100d15780639515671f1461051457806395d89b411461055157806397ba51641461057c5780639f1cabc6146105b9576101c2565b806370a0823114610495578063715018a6146104d25780638da5cb5b146104e9576101c2565b806342966c68116101645780636352211e1161013e5780636352211e146103b557806367d71a17146103f2578063680270a41461042f5780636fd976811461046c576101c2565b806342966c68146103125780634748dce91461033b578063628f1bbf14610378576101c2565b8063081812fc116101a0578063081812fc1461025a578063095ea7b31461029757806323b872dd146102c057806342842e0e146102e9576101c2565b806301ffc9a7146101c757806306661abd1461020457806306fdde031461022f575b600080fd5b3480156101d357600080fd5b506101ee60048036038101906101e991906129de565b610781565b6040516101fb9190612a26565b60405180910390f35b34801561021057600080fd5b50610219610793565b6040516102269190612a5a565b60405180910390f35b34801561023b57600080fd5b5061024461079d565b6040516102519190612b05565b60405180910390f35b34801561026657600080fd5b50610281600480360381019061027c9190612b53565b61082f565b60405161028e9190612bc1565b60405180910390f35b3480156102a357600080fd5b506102be60048036038101906102b99190612c08565b61084b565b005b3480156102cc57600080fd5b506102e760048036038101906102e29190612c48565b610861565b005b3480156102f557600080fd5b50610310600480360381019061030b9190612c48565b610963565b005b34801561031e57600080fd5b5061033960048036038101906103349190612b53565b610983565b005b34801561034757600080fd5b50610362600480360381019061035d9190612b53565b61099a565b60405161036f9190612b05565b60405180910390f35b34801561038457600080fd5b5061039f600480360381019061039a9190612dd0565b610a46565b6040516103ac9190612b05565b60405180910390f35b3480156103c157600080fd5b506103dc60048036038101906103d79190612b53565b610bf5565b6040516103e99190612bc1565b60405180910390f35b3480156103fe57600080fd5b5061041960048036038101906104149190612dd0565b610c07565b6040516104269190612a5a565b60405180910390f35b34801561043b57600080fd5b5061045660048036038101906104519190612dd0565b610c35565b6040516104639190612a5a565b60405180910390f35b34801561047857600080fd5b50610493600480360381019061048e9190612e19565b610c63565b005b3480156104a157600080fd5b506104bc60048036038101906104b79190612e59565b610e29565b6040516104c99190612a5a565b60405180910390f35b3480156104de57600080fd5b506104e7610ee3565b005b3480156104f557600080fd5b506104fe610ef7565b60405161050b9190612bc1565b60405180910390f35b34801561052057600080fd5b5061053b60048036038101906105369190612e19565b610f21565b6040516105489190612a26565b60405180910390f35b34801561055d57600080fd5b50610566611121565b6040516105739190612b05565b60405180910390f35b34801561058857600080fd5b506105a3600480360381019061059e9190612e19565b6111b3565b6040516105b09190612a26565b60405180910390f35b3480156105c557600080fd5b506105e060048036038101906105db9190612dd0565b6112ef565b6040516105ed9190612a26565b60405180910390f35b34801561060257600080fd5b5061061d60048036038101906106189190612eb2565b61131a565b005b34801561062b57600080fd5b5061064660048036038101906106419190612b53565b611330565b6040516106539190612b05565b60405180910390f35b34801561066857600080fd5b50610683600480360381019061067e9190612f93565b6113d0565b005b34801561069157600080fd5b506106ac60048036038101906106a79190612b53565b6113ed565b6040516106b99190612b05565b60405180910390f35b3480156106ce57600080fd5b506106e960048036038101906106e49190613016565b6113ff565b005b61070560048036038101906107009190613072565b61143b565b6040516107129190612a5a565b60405180910390f35b34801561072757600080fd5b50610742600480360381019061073d9190613111565b6115ef565b60405161074f9190612a26565b60405180910390f35b34801561076457600080fd5b5061077f600480360381019061077a9190612e59565b611683565b005b600061078c82611709565b9050919050565b6000600854905090565b6060600080546107ac90613180565b80601f01602080910402602001604051908101604052809291908181526020018280546107d890613180565b80156108255780601f106107fa57610100808354040283529160200191610825565b820191906000526020600020905b81548152906001019060200180831161080857829003601f168201915b5050505050905090565b600061083a8261176a565b50610844826117f2565b9050919050565b61085d828261085861182f565b611837565b5050565b600073ffffffffffffffffffffffffffffffffffffffff168273ffffffffffffffffffffffffffffffffffffffff16036108d35760006040517f64a0ae920000000000000000000000000000000000000000000000000000000081526004016108ca9190612bc1565b60405180910390fd5b60006108e783836108e261182f565b611849565b90508373ffffffffffffffffffffffffffffffffffffffff168173ffffffffffffffffffffffffffffffffffffffff161461095d578382826040517f64283d7b000000000000000000000000000000000000000000000000000000008152600401610954939291906131b1565b60405180910390fd5b50505050565b61097e838383604051806020016040528060008152506113d0565b505050565b61099660008261099161182f565b611849565b5050565b600d81815481106109aa57600080fd5b9060005260206000200160009150905080546109c590613180565b80601f01602080910402602001604051908101604052809291908181526020018280546109f190613180565b8015610a3e5780601f10610a1357610100808354040283529160200191610a3e565b820191906000526020600020905b815481529060010190602001808311610a2157829003601f168201915b505050505081565b60606000805b600d80549050811015610bdb57600d8181548110610a6d57610a6c6131e8565b5b90600052602060002001604051610a8491906132ba565b6040518091039020848051906020012003610a9e57600191505b818015610abb5750600d80549050600182610ab99190613300565b105b15610bc8576000600d600183610ad19190613300565b81548110610ae257610ae16131e8565b5b906000526020600020018054610af790613180565b80601f0160208091040260200160405190810160405280929190818152602001828054610b2390613180565b8015610b705780601f10610b4557610100808354040283529160200191610b70565b820191906000526020600020905b815481529060010190602001808311610b5357829003601f168201915b50505050509050600b81604051610b879190613370565b908152602001604051809103902054600a82604051610ba69190613370565b9081526020016040518091039020541015610bc657809350505050610bf0565b505b8080610bd390613387565b915050610a4c565b50604051806020016040528060008152509150505b919050565b6000610c008261176a565b9050919050565b600b818051602081018201805184825260208301602085012081835280955050505050506000915090505481565b600a818051602081018201805184825260208301602085012081835280955050505050506000915090505481565b610c6d82826111b3565b610cac576040517f08c379a0000000000000000000000000000000000000000000000000000000008152600401610ca39061341b565b60405180910390fd5b6000600c60008481526020019081526020016000208054610ccc90613180565b80601f0160208091040260200160405190810160405280929190818152602001828054610cf890613180565b8015610d455780601f10610d1a57610100808354040283529160200191610d45565b820191906000526020600020905b815481529060010190602001808311610d2857829003601f168201915b505050505090506000610d5782610a46565b90506000815111610d9d576040517f08c379a0000000000000000000000000000000000000000000000000000000008152600401610d9490613487565b60405180910390fd5b610da684611a63565b610daf83611a63565b7f8bc81353cf6671d259d22783e39ed930583c86f3f4cf7e981298e6a872dfb15d8484604051610de09291906134a7565b60405180910390a17f9a7bcce90e1c6a2750370f23ff4f099b44db802f37f467a492625a4d3c8c5c2e848483604051610e1b939291906134d0565b60405180910390a150505050565b60008073ffffffffffffffffffffffffffffffffffffffff168273ffffffffffffffffffffffffffffffffffffffff1603610e9c5760006040517f89c62b64000000000000000000000000000000000000000000000000000000008152600401610e939190612bc1565b60405180910390fd5b600360008373ffffffffffffffffffffffffffffffffffffffff1673ffffffffffffffffffffffffffffffffffffffff168152602001908152602001600020549050919050565b610eeb611ae9565b610ef56000611b70565b565b6000600760009054906101000a900473ffffffffffffffffffffffffffffffffffffffff16905090565b600080600c60008581526020019081526020016000208054610f4290613180565b80601f0160208091040260200160405190810160405280929190818152602001828054610f6e90613180565b8015610fbb5780601f10610f9057610100808354040283529160200191610fbb565b820191906000526020600020905b815481529060010190602001808311610f9e57829003601f168201915b505050505090506000600c60008581526020019081526020016000208054610fe290613180565b80601f016020809104026020016040519081016040528092919081815260200182805461100e90613180565b801561105b5780601f106110305761010080835404028352916020019161105b565b820191906000526020600020905b81548152906001019060200180831161103e57829003601f168201915b505050505090506040518060400160405280600981526020017f4c6567656e64617279000000000000000000000000000000000000000000000081525080519060200120828051906020012014806110f557506040518060400160405280600981526020017f4c6567656e646172790000000000000000000000000000000000000000000000815250805190602001208180519060200120145b156111055760009250505061111b565b8080519060200120828051906020012014925050505b92915050565b60606001805461113090613180565b80601f016020809104026020016040519081016040528092919081815260200182805461115c90613180565b80156111a95780601f1061117e576101008083540402835291602001916111a9565b820191906000526020600020905b81548152906001019060200180831161118c57829003601f168201915b5050505050905090565b6000600160096111c2856113ed565b6040516111cf9190613370565b908152602001604051809103902054146111e8846113ed565b6040516020016111f891906135a6565b60405160208183030381529060405290611248576040517f08c379a000000000000000000000000000000000000000000000000000000000815260040161123f9190612b05565b60405180910390fd5b5060016009611256846113ed565b6040516112639190613370565b9081526020016040518091039020541461127c836113ed565b60405160200161128c919061361f565b604051602081830303815290604052906112dc576040517f08c379a00000000000000000000000000000000000000000000000000000000081526004016112d39190612b05565b60405180910390fd5b506112e78383610f21565b905092915050565b600060016009836040516113039190613370565b908152602001604051809103902054149050919050565b61132c61132561182f565b8383611c36565b5050565b600c602052806000526040600020600091509050805461134f90613180565b80601f016020809104026020016040519081016040528092919081815260200182805461137b90613180565b80156113c85780601f1061139d576101008083540402835291602001916113c8565b820191906000526020600020905b8154815290600101906020018083116113ab57829003601f168201915b505050505081565b6113db848484610861565b6113e784848484611da5565b50505050565b60606113f882611f5c565b9050919050565b611407611ae9565b60006008600081548092919061141c90613387565b91905055905061142c838261206f565b611436818361208d565b505050565b6000600160098460405161144f9190613370565b9081526020016040518091039020540361149e576040517f08c379a000000000000000000000000000000000000000000000000000000000815260040161149590613698565b60405180910390fd5b66b1a2bc2ec500003410156114e8576040517f08c379a00000000000000000000000000000000000000000000000000000000081526004016114df90613704565b60405180910390fd5b600860008154809291906114fb90613387565b919050555060016009846040516115129190613370565b90815260200160405180910390208190555061152e85856120e9565b611538848461208d565b81600c6000868152602001908152602001600020908161155891906138d0565b50600a826040516115699190613370565b9081526020016040518091039020600081548092919061158890613387565b91905055507f905e880dbaad9650287ca85db4d438b242e0743ad0695b07906040bedf3c66ae836009856040516115bf9190613370565b9081526020016040518091039020546040516115dc9291906139a2565b60405180910390a1839050949350505050565b6000600560008473ffffffffffffffffffffffffffffffffffffffff1673ffffffffffffffffffffffffffffffffffffffff16815260200190815260200160002060008373ffffffffffffffffffffffffffffffffffffffff1673ffffffffffffffffffffffffffffffffffffffff16815260200190815260200160002060009054906101000a900460ff16905092915050565b61168b611ae9565b600073ffffffffffffffffffffffffffffffffffffffff168173ffffffffffffffffffffffffffffffffffffffff16036116fd5760006040517f1e4fbdf70000000000000000000000000000000000000000000000000000000081526004016116f49190612bc1565b60405180910390fd5b61170681611b70565b50565b6000634906490660e01b7bffffffffffffffffffffffffffffffffffffffffffffffffffffffff1916827bffffffffffffffffffffffffffffffffffffffffffffffffffffffff191614806117635750611762826121e2565b5b9050919050565b600080611776836122c4565b9050600073ffffffffffffffffffffffffffffffffffffffff168173ffffffffffffffffffffffffffffffffffffffff16036117e957826040517f7e2732890000000000000000000000000000000000000000000000000000000081526004016117e09190612a5a565b60405180910390fd5b80915050919050565b60006004600083815260200190815260200160002060009054906101000a900473ffffffffffffffffffffffffffffffffffffffff169050919050565b600033905090565b6118448383836001612301565b505050565b600080611855846122c4565b9050600073ffffffffffffffffffffffffffffffffffffffff168373ffffffffffffffffffffffffffffffffffffffff1614611897576118968184866124c6565b5b600073ffffffffffffffffffffffffffffffffffffffff168173ffffffffffffffffffffffffffffffffffffffff1614611928576118d9600085600080612301565b6001600360008373ffffffffffffffffffffffffffffffffffffffff1673ffffffffffffffffffffffffffffffffffffffff168152602001908152602001600020600082825403925050819055505b600073ffffffffffffffffffffffffffffffffffffffff168573ffffffffffffffffffffffffffffffffffffffff16146119ab576001600360008773ffffffffffffffffffffffffffffffffffffffff1673ffffffffffffffffffffffffffffffffffffffff168152602001908152602001600020600082825401925050819055505b846002600086815260200190815260200160002060006101000a81548173ffffffffffffffffffffffffffffffffffffffff021916908373ffffffffffffffffffffffffffffffffffffffff160217905550838573ffffffffffffffffffffffffffffffffffffffff168273ffffffffffffffffffffffffffffffffffffffff167fddf252ad1be2c89b69c2b068fc378daa952ba7f163c4a11628f55a4df523b3ef60405160405180910390a4809150509392505050565b6000611a726000836000611849565b9050600073ffffffffffffffffffffffffffffffffffffffff168173ffffffffffffffffffffffffffffffffffffffff1603611ae557816040517f7e273289000000000000000000000000000000000000000000000000000000008152600401611adc9190612a5a565b60405180910390fd5b5050565b611af161182f565b73ffffffffffffffffffffffffffffffffffffffff16611b0f610ef7565b73ffffffffffffffffffffffffffffffffffffffff1614611b6e57611b3261182f565b6040517f118cdaa7000000000000000000000000000000000000000000000000000000008152600401611b659190612bc1565b60405180910390fd5b565b6000600760009054906101000a900473ffffffffffffffffffffffffffffffffffffffff16905081600760006101000a81548173ffffffffffffffffffffffffffffffffffffffff021916908373ffffffffffffffffffffffffffffffffffffffff1602179055508173ffffffffffffffffffffffffffffffffffffffff168173ffffffffffffffffffffffffffffffffffffffff167f8be0079c531659141344cd1fd0a4f28419497f9722a3daafe3b4186f6b6457e060405160405180910390a35050565b600073ffffffffffffffffffffffffffffffffffffffff168273ffffffffffffffffffffffffffffffffffffffff1603611ca757816040517f5b08ba18000000000000000000000000000000000000000000000000000000008152600401611c9e9190612bc1565b60405180910390fd5b80600560008573ffffffffffffffffffffffffffffffffffffffff1673ffffffffffffffffffffffffffffffffffffffff16815260200190815260200160002060008473ffffffffffffffffffffffffffffffffffffffff1673ffffffffffffffffffffffffffffffffffffffff16815260200190815260200160002060006101000a81548160ff0219169083151502179055508173ffffffffffffffffffffffffffffffffffffffff168373ffffffffffffffffffffffffffffffffffffffff167f17307eab39ab6107e8899845ad3d59bd9653f200f220920489ca2b5937696c3183604051611d989190612a26565b60405180910390a3505050565b60008373ffffffffffffffffffffffffffffffffffffffff163b1115611f56578273ffffffffffffffffffffffffffffffffffffffff1663150b7a02611de961182f565b8685856040518563ffffffff1660e01b8152600401611e0b9493929190613a27565b6020604051808303816000875af1925050508015611e4757506040513d601f19601f82011682018060405250810190611e449190613a88565b60015b611ecb573d8060008114611e77576040519150601f19603f3d011682016040523d82523d6000602084013e611e7c565b606091505b506000815103611ec357836040517f64a0ae92000000000000000000000000000000000000000000000000000000008152600401611eba9190612bc1565b60405180910390fd5b805181602001fd5b63150b7a0260e01b7bffffffffffffffffffffffffffffffffffffffffffffffffffffffff1916817bffffffffffffffffffffffffffffffffffffffffffffffffffffffff191614611f5457836040517f64a0ae92000000000000000000000000000000000000000000000000000000008152600401611f4b9190612bc1565b60405180910390fd5b505b50505050565b6060611f678261176a565b506000600660008481526020019081526020016000208054611f8890613180565b80601f0160208091040260200160405190810160405280929190818152602001828054611fb490613180565b80156120015780601f10611fd657610100808354040283529160200191612001565b820191906000526020600020905b815481529060010190602001808311611fe457829003601f168201915b50505050509050600061201261258a565b9050600081510361202757819250505061206a565b60008251111561205c578082604051602001612044929190613ab5565b6040516020818303038152906040529250505061206a565b612065846125a1565b925050505b919050565b61208982826040518060200160405280600081525061260a565b5050565b806006600084815260200190815260200160002090816120ad91906138d0565b507ff8e1a15aba9398e019f0b49df1a4fde98ee17ae345cb5f6b5e2c27f5033e8ce7826040516120dd9190612a5a565b60405180910390a15050565b600073ffffffffffffffffffffffffffffffffffffffff168273ffffffffffffffffffffffffffffffffffffffff160361215b5760006040517f64a0ae920000000000000000000000000000000000000000000000000000000081526004016121529190612bc1565b60405180910390fd5b600061216983836000611849565b9050600073ffffffffffffffffffffffffffffffffffffffff168173ffffffffffffffffffffffffffffffffffffffff16146121dd5760006040517f73c6ac6e0000000000000000000000000000000000000000000000000000000081526004016121d49190612bc1565b60405180910390fd5b505050565b60007f80ac58cd000000000000000000000000000000000000000000000000000000007bffffffffffffffffffffffffffffffffffffffffffffffffffffffff1916827bffffffffffffffffffffffffffffffffffffffffffffffffffffffff191614806122ad57507f5b5e139f000000000000000000000000000000000000000000000000000000007bffffffffffffffffffffffffffffffffffffffffffffffffffffffff1916827bffffffffffffffffffffffffffffffffffffffffffffffffffffffff1916145b806122bd57506122bc82612626565b5b9050919050565b60006002600083815260200190815260200160002060009054906101000a900473ffffffffffffffffffffffffffffffffffffffff169050919050565b808061233a5750600073ffffffffffffffffffffffffffffffffffffffff168273ffffffffffffffffffffffffffffffffffffffff1614155b1561246e57600061234a8461176a565b9050600073ffffffffffffffffffffffffffffffffffffffff168373ffffffffffffffffffffffffffffffffffffffff16141580156123b557508273ffffffffffffffffffffffffffffffffffffffff168173ffffffffffffffffffffffffffffffffffffffff1614155b80156123c857506123c681846115ef565b155b1561240a57826040517fa9fbf51f0000000000000000000000000000000000000000000000000000000081526004016124019190612bc1565b60405180910390fd5b811561246c57838573ffffffffffffffffffffffffffffffffffffffff168273ffffffffffffffffffffffffffffffffffffffff167f8c5be1e5ebec7d5bd14f71427d1e84f3dd0314c0f7b2291e5b200ac8c7c3b92560405160405180910390a45b505b836004600085815260200190815260200160002060006101000a81548173ffffffffffffffffffffffffffffffffffffffff021916908373ffffffffffffffffffffffffffffffffffffffff16021790555050505050565b6124d1838383612690565b61258557600073ffffffffffffffffffffffffffffffffffffffff168373ffffffffffffffffffffffffffffffffffffffff160361254657806040517f7e27328900000000000000000000000000000000000000000000000000000000815260040161253d9190612a5a565b60405180910390fd5b81816040517f177e802f00000000000000000000000000000000000000000000000000000000815260040161257c929190613ad9565b60405180910390fd5b505050565b606060405180602001604052806000815250905090565b60606125ac8261176a565b5060006125b761258a565b905060008151116125d75760405180602001604052806000815250612602565b806125e184612751565b6040516020016125f2929190613ab5565b6040516020818303038152906040525b915050919050565b61261483836120e9565b6126216000848484611da5565b505050565b60007f01ffc9a7000000000000000000000000000000000000000000000000000000007bffffffffffffffffffffffffffffffffffffffffffffffffffffffff1916827bffffffffffffffffffffffffffffffffffffffffffffffffffffffff1916149050919050565b60008073ffffffffffffffffffffffffffffffffffffffff168373ffffffffffffffffffffffffffffffffffffffff161415801561274857508273ffffffffffffffffffffffffffffffffffffffff168473ffffffffffffffffffffffffffffffffffffffff161480612709575061270884846115ef565b5b8061274757508273ffffffffffffffffffffffffffffffffffffffff1661272f836117f2565b73ffffffffffffffffffffffffffffffffffffffff16145b5b90509392505050565b6060600060016127608461281f565b01905060008167ffffffffffffffff81111561277f5761277e612ca5565b5b6040519080825280601f01601f1916602001820160405280156127b15781602001600182028036833780820191505090505b509050600082602001820190505b600115612814578080600190039150507f3031323334353637383961626364656600000000000000000000000000000000600a86061a8153600a858161280857612807613b02565b5b049450600085036127bf575b819350505050919050565b600080600090507a184f03e93ff9f4daa797ed6e38ed64bf6a1f010000000000000000831061287d577a184f03e93ff9f4daa797ed6e38ed64bf6a1f010000000000000000838161287357612872613b02565b5b0492506040810190505b6d04ee2d6d415b85acef810000000083106128ba576d04ee2d6d415b85acef810000000083816128b0576128af613b02565b5b0492506020810190505b662386f26fc1000083106128e957662386f26fc1000083816128df576128de613b02565b5b0492506010810190505b6305f5e1008310612912576305f5e100838161290857612907613b02565b5b0492506008810190505b612710831061293757612710838161292d5761292c613b02565b5b0492506004810190505b6064831061295a57606483816129505761294f613b02565b5b0492506002810190505b600a8310612969576001810190505b80915050919050565b6000604051905090565b600080fd5b600080fd5b60007fffffffff0000000000000000000000000000000000000000000000000000000082169050919050565b6129bb81612986565b81146129c657600080fd5b50565b6000813590506129d8816129b2565b92915050565b6000602082840312156129f4576129f361297c565b5b6000612a02848285016129c9565b91505092915050565b60008115159050919050565b612a2081612a0b565b82525050565b6000602082019050612a3b6000830184612a17565b92915050565b6000819050919050565b612a5481612a41565b82525050565b6000602082019050612a6f6000830184612a4b565b92915050565b600081519050919050565b600082825260208201905092915050565b60005b83811015612aaf578082015181840152602081019050612a94565b60008484015250505050565b6000601f19601f8301169050919050565b6000612ad782612a75565b612ae18185612a80565b9350612af1818560208601612a91565b612afa81612abb565b840191505092915050565b60006020820190508181036000830152612b1f8184612acc565b905092915050565b612b3081612a41565b8114612b3b57600080fd5b50565b600081359050612b4d81612b27565b92915050565b600060208284031215612b6957612b6861297c565b5b6000612b7784828501612b3e565b91505092915050565b600073ffffffffffffffffffffffffffffffffffffffff82169050919050565b6000612bab82612b80565b9050919050565b612bbb81612ba0565b82525050565b6000602082019050612bd66000830184612bb2565b92915050565b612be581612ba0565b8114612bf057600080fd5b50565b600081359050612c0281612bdc565b92915050565b60008060408385031215612c1f57612c1e61297c565b5b6000612c2d85828601612bf3565b9250506020612c3e85828601612b3e565b9150509250929050565b600080600060608486031215612c6157612c6061297c565b5b6000612c6f86828701612bf3565b9350506020612c8086828701612bf3565b9250506040612c9186828701612b3e565b9150509250925092565b600080fd5b600080fd5b7f4e487b7100000000000000000000000000000000000000000000000000000000600052604160045260246000fd5b612cdd82612abb565b810181811067ffffffffffffffff82111715612cfc57612cfb612ca5565b5b80604052505050565b6000612d0f612972565b9050612d1b8282612cd4565b919050565b600067ffffffffffffffff821115612d3b57612d3a612ca5565b5b612d4482612abb565b9050602081019050919050565b82818337600083830152505050565b6000612d73612d6e84612d20565b612d05565b905082815260208101848484011115612d8f57612d8e612ca0565b5b612d9a848285612d51565b509392505050565b600082601f830112612db757612db6612c9b565b5b8135612dc7848260208601612d60565b91505092915050565b600060208284031215612de657612de561297c565b5b600082013567ffffffffffffffff811115612e0457612e03612981565b5b612e1084828501612da2565b91505092915050565b60008060408385031215612e3057612e2f61297c565b5b6000612e3e85828601612b3e565b9250506020612e4f85828601612b3e565b9150509250929050565b600060208284031215612e6f57612e6e61297c565b5b6000612e7d84828501612bf3565b91505092915050565b612e8f81612a0b565b8114612e9a57600080fd5b50565b600081359050612eac81612e86565b92915050565b60008060408385031215612ec957612ec861297c565b5b6000612ed785828601612bf3565b9250506020612ee885828601612e9d565b9150509250929050565b600067ffffffffffffffff821115612f0d57612f0c612ca5565b5b612f1682612abb565b9050602081019050919050565b6000612f36612f3184612ef2565b612d05565b905082815260208101848484011115612f5257612f51612ca0565b5b612f5d848285612d51565b509392505050565b600082601f830112612f7a57612f79612c9b565b5b8135612f8a848260208601612f23565b91505092915050565b60008060008060808587031215612fad57612fac61297c565b5b6000612fbb87828801612bf3565b9450506020612fcc87828801612bf3565b9350506040612fdd87828801612b3e565b925050606085013567ffffffffffffffff811115612ffe57612ffd612981565b5b61300a87828801612f65565b91505092959194509250565b6000806040838503121561302d5761302c61297c565b5b600061303b85828601612bf3565b925050602083013567ffffffffffffffff81111561305c5761305b612981565b5b61306885828601612da2565b9150509250929050565b6000806000806080858703121561308c5761308b61297c565b5b600061309a87828801612bf3565b94505060206130ab87828801612b3e565b935050604085013567ffffffffffffffff8111156130cc576130cb612981565b5b6130d887828801612da2565b925050606085013567ffffffffffffffff8111156130f9576130f8612981565b5b61310587828801612da2565b91505092959194509250565b600080604083850312156131285761312761297c565b5b600061313685828601612bf3565b925050602061314785828601612bf3565b9150509250929050565b7f4e487b7100000000000000000000000000000000000000000000000000000000600052602260045260246000fd5b6000600282049050600182168061319857607f821691505b6020821081036131ab576131aa613151565b5b50919050565b60006060820190506131c66000830186612bb2565b6131d36020830185612a4b565b6131e06040830184612bb2565b949350505050565b7f4e487b7100000000000000000000000000000000000000000000000000000000600052603260045260246000fd5b600081905092915050565b60008190508160005260206000209050919050565b6000815461324481613180565b61324e8186613217565b94506001821660008114613269576001811461327e576132b1565b60ff19831686528115158202860193506132b1565b61328785613222565b60005b838110156132a95781548189015260018201915060208101905061328a565b838801955050505b50505092915050565b60006132c68284613237565b915081905092915050565b7f4e487b7100000000000000000000000000000000000000000000000000000000600052601160045260246000fd5b600061330b82612a41565b915061331683612a41565b925082820190508082111561332e5761332d6132d1565b5b92915050565b600081905092915050565b600061334a82612a75565b6133548185613334565b9350613364818560208601612a91565b80840191505092915050565b600061337c828461333f565b915081905092915050565b600061339282612a41565b91507fffffffffffffffffffffffffffffffffffffffffffffffffffffffffffffffff82036133c4576133c36132d1565b5b600182019050919050565b7f546f6b656e732063616e6e6f74206265206d6572676564000000000000000000600082015250565b6000613405601783612a80565b9150613410826133cf565b602082019050919050565b60006020820190508181036000830152613434816133f8565b9050919050565b7f4e6f206869676865722072617269747920617661696c61626c65000000000000600082015250565b6000613471601a83612a80565b915061347c8261343b565b602082019050919050565b600060208201905081810360008301526134a081613464565b9050919050565b60006040820190506134bc6000830185612a4b565b6134c96020830184612a4b565b9392505050565b60006060820190506134e56000830186612a4b565b6134f26020830185612a4b565b81810360408301526135048184612acc565b9050949350505050565b7f546f6b656e203120000000000000000000000000000000000000000000000000600082015250565b6000613544600883613334565b915061354f8261350e565b600882019050919050565b7f20646f6573206e6f742065786973740000000000000000000000000000000000600082015250565b6000613590600f83613334565b915061359b8261355a565b600f82019050919050565b60006135b182613537565b91506135bd828461333f565b91506135c882613583565b915081905092915050565b7f546f6b656e203220000000000000000000000000000000000000000000000000600082015250565b6000613609600883613334565b9150613614826135d3565b600882019050919050565b600061362a826135fc565b9150613636828461333f565b915061364182613583565b915081905092915050565b7f4e465420616c7265616479206d696e7465642100000000000000000000000000600082015250565b6000613682601383612a80565b915061368d8261364c565b602082019050919050565b600060208201905081810360008301526136b181613675565b9050919050565b7f496e73756666696369656e7420616d6f756e7421000000000000000000000000600082015250565b60006136ee601483612a80565b91506136f9826136b8565b602082019050919050565b6000602082019050818103600083015261371d816136e1565b9050919050565b60008190508160005260206000209050919050565b60006020601f8301049050919050565b600082821b905092915050565b6000600883026137867fffffffffffffffffffffffffffffffffffffffffffffffffffffffffffffffff82613749565b6137908683613749565b95508019841693508086168417925050509392505050565b6000819050919050565b60006137cd6137c86137c384612a41565b6137a8565b612a41565b9050919050565b6000819050919050565b6137e7836137b2565b6137fb6137f3826137d4565b848454613756565b825550505050565b600090565b613810613803565b61381b8184846137de565b505050565b5b8181101561383f57613834600082613808565b600181019050613821565b5050565b601f8211156138845761385581613724565b61385e84613739565b8101602085101561386d578190505b61388161387985613739565b830182613820565b50505b505050565b600082821c905092915050565b60006138a760001984600802613889565b1980831691505092915050565b60006138c08383613896565b9150826002028217905092915050565b6138d982612a75565b67ffffffffffffffff8111156138f2576138f1612ca5565b5b6138fc8254613180565b613907828285613843565b600060209050601f83116001811461393a5760008415613928578287015190505b61393285826138b4565b86555061399a565b601f19841661394886613724565b60005b828110156139705784890151825560018201915060208501945060208101905061394b565b8683101561398d5784890151613989601f891682613896565b8355505b6001600288020188555050505b505050505050565b600060408201905081810360008301526139bc8185612acc565b90506139cb6020830184612a4b565b9392505050565b600081519050919050565b600082825260208201905092915050565b60006139f9826139d2565b613a0381856139dd565b9350613a13818560208601612a91565b613a1c81612abb565b840191505092915050565b6000608082019050613a3c6000830187612bb2565b613a496020830186612bb2565b613a566040830185612a4b565b8181036060830152613a6881846139ee565b905095945050505050565b600081519050613a82816129b2565b92915050565b600060208284031215613a9e57613a9d61297c565b5b6000613aac84828501613a73565b91505092915050565b6000613ac1828561333f565b9150613acd828461333f565b91508190509392505050565b6000604082019050613aee6000830185612bb2565b613afb6020830184612a4b565b9392505050565b7f4e487b7100000000000000000000000000000000000000000000000000000000600052601260045260246000fdfea264697066735822122016d04364b71fb8061240fd5deca5885d8169a7f5d705f27816e790ae2aa66dd964736f6c63430008140033",
  "linkReferences": {},
  "deployedLinkReferences": {}
}