{
  "_format": "hh-sol-artifact-1",
  "contractName": "Warriors",
  "sourceName": "contracts/WarriorsNFT.sol",
  "abi": [
    {
      "inputs": [
        {
          "internalType": "address",
          "name": "initialOwner",
          "type": "address"
        }
      ],
      "stateMutability": "nonpayable",
      "type": "constructor"
    },
    {
      "inputs": [
        {
          "internalType": "address",
          "name": "sender",
          "type": "address"
        },
        {
          "internalType": "uint256",
          "name": "tokenId",
          "type": "uint256"
        },
        {
          "internalType": "address",
          "name": "owner",
          "type": "address"
        }
      ],
      "name": "ERC721IncorrectOwner",
      "type": "error"
    },
    {
      "inputs": [
        {
          "internalType": "address",
          "name": "operator",
          "type": "address"
        },
        {
          "internalType": "uint256",
          "name": "tokenId",
          "type": "uint256"
        }
      ],
      "name": "ERC721InsufficientApproval",
      "type": "error"
    },
    {
      "inputs": [
        {
          "internalType": "address",
          "name": "approver",
          "type": "address"
        }
      ],
      "name": "ERC721InvalidApprover",
      "type": "error"
    },
    {
      "inputs": [
        {
          "internalType": "address",
          "name": "operator",
          "type": "address"
        }
      ],
      "name": "ERC721InvalidOperator",
      "type": "error"
    },
    {
      "inputs": [
        {
          "internalType": "address",
          "name": "owner",
          "type": "address"
        }
      ],
      "name": "ERC721InvalidOwner",
      "type": "error"
    },
    {
      "inputs": [
        {
          "internalType": "address",
          "name": "receiver",
          "type": "address"
        }
      ],
      "name": "ERC721InvalidReceiver",
      "type": "error"
    },
    {
      "inputs": [
        {
          "internalType": "address",
          "name": "sender",
          "type": "address"
        }
      ],
      "name": "ERC721InvalidSender",
      "type": "error"
    },
    {
      "inputs": [
        {
          "internalType": "uint256",
          "name": "tokenId",
          "type": "uint256"
        }
      ],
      "name": "ERC721NonexistentToken",
      "type": "error"
    },
    {
      "inputs": [
        {
          "internalType": "address",
          "name": "owner",
          "type": "address"
        }
      ],
      "name": "OwnableInvalidOwner",
      "type": "error"
    },
    {
      "inputs": [
        {
          "internalType": "address",
          "name": "account",
          "type": "address"
        }
      ],
      "name": "OwnableUnauthorizedAccount",
      "type": "error"
    },
    {
      "anonymous": false,
      "inputs": [
        {
          "indexed": true,
          "internalType": "address",
          "name": "owner",
          "type": "address"
        },
        {
          "indexed": true,
          "internalType": "address",
          "name": "approved",
          "type": "address"
        },
        {
          "indexed": true,
          "internalType": "uint256",
          "name": "tokenId",
          "type": "uint256"
        }
      ],
      "name": "Approval",
      "type": "event"
    },
    {
      "anonymous": false,
      "inputs": [
        {
          "indexed": true,
          "internalType": "address",
          "name": "owner",
          "type": "address"
        },
        {
          "indexed": true,
          "internalType": "address",
          "name": "operator",
          "type": "address"
        },
        {
          "indexed": false,
          "internalType": "bool",
          "name": "approved",
          "type": "bool"
        }
      ],
      "name": "ApprovalForAll",
      "type": "event"
    },
    {
      "anonymous": false,
      "inputs": [
        {
          "indexed": false,
          "internalType": "uint256",
          "name": "_fromTokenId",
          "type": "uint256"
        },
        {
          "indexed": false,
          "internalType": "uint256",
          "name": "_toTokenId",
          "type": "uint256"
        }
      ],
      "name": "BatchMetadataUpdate",
      "type": "event"
    },
    {
      "anonymous": false,
      "inputs": [
        {
          "indexed": false,
          "internalType": "uint256",
          "name": "_tokenId",
          "type": "uint256"
        }
      ],
      "name": "MetadataUpdate",
      "type": "event"
    },
    {
      "anonymous": false,
      "inputs": [
        {
          "indexed": true,
          "internalType": "address",
          "name": "previousOwner",
          "type": "address"
        },
        {
          "indexed": true,
          "internalType": "address",
          "name": "newOwner",
          "type": "address"
        }
      ],
      "name": "OwnershipTransferred",
      "type": "event"
    },
    {
      "anonymous": false,
      "inputs": [
        {
          "indexed": false,
          "internalType": "string",
          "name": "tokenURI",
          "type": "string"
        },
        {
          "indexed": false,
          "internalType": "uint256",
          "name": "uri",
          "type": "uint256"
        }
      ],
      "name": "TokenExistenceCheck",
      "type": "event"
    },
    {
      "anonymous": false,
      "inputs": [
        {
          "indexed": true,
          "internalType": "address",
          "name": "from",
          "type": "address"
        },
        {
          "indexed": true,
          "internalType": "address",
          "name": "to",
          "type": "address"
        },
        {
          "indexed": true,
          "internalType": "uint256",
          "name": "tokenId",
          "type": "uint256"
        }
      ],
      "name": "Transfer",
      "type": "event"
    },
    {
      "inputs": [
        {
          "internalType": "address",
          "name": "to",
          "type": "address"
        },
        {
          "internalType": "uint256",
          "name": "tokenId",
          "type": "uint256"
        }
      ],
      "name": "approve",
      "outputs": [],
      "stateMutability": "nonpayable",
      "type": "function"
    },
    {
      "inputs": [
        {
          "internalType": "address",
          "name": "owner",
          "type": "address"
        }
      ],
      "name": "balanceOf",
      "outputs": [
        {
          "internalType": "uint256",
          "name": "",
          "type": "uint256"
        }
      ],
      "stateMutability": "view",
      "type": "function"
    },
    {
      "inputs": [
        {
          "internalType": "uint256",
          "name": "tokenId",
          "type": "uint256"
        }
      ],
      "name": "burn",
      "outputs": [],
      "stateMutability": "nonpayable",
      "type": "function"
    },
    {
      "inputs": [
        {
          "internalType": "uint256",
          "name": "tokenId1",
          "type": "uint256"
        },
        {
          "internalType": "uint256",
          "name": "tokenId2",
          "type": "uint256"
        }
      ],
      "name": "canMerge",
      "outputs": [
        {
          "internalType": "bool",
          "name": "",
          "type": "bool"
        }
      ],
      "stateMutability": "view",
      "type": "function"
    },
    {
      "inputs": [
        {
          "internalType": "uint256",
          "name": "tokenId1",
          "type": "uint256"
        },
        {
          "internalType": "uint256",
          "name": "tokenId2",
          "type": "uint256"
        }
      ],
      "name": "compareRarity",
      "outputs": [
        {
          "internalType": "bool",
          "name": "",
          "type": "bool"
        }
      ],
      "stateMutability": "view",
      "type": "function"
    },
    {
      "inputs": [],
      "name": "count",
      "outputs": [
        {
          "internalType": "uint256",
          "name": "",
          "type": "uint256"
        }
      ],
      "stateMutability": "view",
      "type": "function"
    },
    {
      "inputs": [
        {
          "internalType": "uint256",
          "name": "tokenId",
          "type": "uint256"
        }
      ],
      "name": "getApproved",
      "outputs": [
        {
          "internalType": "address",
          "name": "",
          "type": "address"
        }
      ],
      "stateMutability": "view",
      "type": "function"
    },
    {
      "inputs": [
        {
          "internalType": "address",
          "name": "owner",
          "type": "address"
        },
        {
          "internalType": "address",
          "name": "operator",
          "type": "address"
        }
      ],
      "name": "isApprovedForAll",
      "outputs": [
        {
          "internalType": "bool",
          "name": "",
          "type": "bool"
        }
      ],
      "stateMutability": "view",
      "type": "function"
    },
    {
      "inputs": [
        {
          "internalType": "string",
          "name": "uri",
          "type": "string"
        }
      ],
      "name": "isContentOwned",
      "outputs": [
        {
          "internalType": "bool",
          "name": "",
          "type": "bool"
        }
      ],
      "stateMutability": "view",
      "type": "function"
    },
    {
      "inputs": [],
      "name": "name",
      "outputs": [
        {
          "internalType": "string",
          "name": "",
          "type": "string"
        }
      ],
      "stateMutability": "view",
      "type": "function"
    },
    {
      "inputs": [],
      "name": "owner",
      "outputs": [
        {
          "internalType": "address",
          "name": "",
          "type": "address"
        }
      ],
      "stateMutability": "view",
      "type": "function"
    },
    {
      "inputs": [
        {
          "internalType": "uint256",
          "name": "tokenId",
          "type": "uint256"
        }
      ],
      "name": "ownerOf",
      "outputs": [
        {
          "internalType": "address",
          "name": "",
          "type": "address"
        }
      ],
      "stateMutability": "view",
      "type": "function"
    },
    {
      "inputs": [
        {
          "internalType": "address",
          "name": "recipient",
          "type": "address"
        },
        {
          "internalType": "uint256",
          "name": "tokenId",
          "type": "uint256"
        },
        {
          "internalType": "string",
          "name": "metadataURI",
          "type": "string"
        },
        {
          "internalType": "string",
          "name": "rarity",
          "type": "string"
        }
      ],
      "name": "payToMint",
      "outputs": [
        {
          "internalType": "uint256",
          "name": "",
          "type": "uint256"
        }
      ],
      "stateMutability": "payable",
      "type": "function"
    },
    {
      "inputs": [
        {
          "internalType": "uint256",
          "name": "",
          "type": "uint256"
        }
      ],
      "name": "rarityLevels",
      "outputs": [
        {
          "internalType": "string",
          "name": "",
          "type": "string"
        }
      ],
      "stateMutability": "view",
      "type": "function"
    },
    {
      "inputs": [
        {
          "internalType": "string",
          "name": "",
          "type": "string"
        }
      ],
      "name": "rarityMaxCount",
      "outputs": [
        {
          "internalType": "uint256",
          "name": "",
          "type": "uint256"
        }
      ],
      "stateMutability": "view",
      "type": "function"
    },
    {
      "inputs": [
        {
          "internalType": "string",
          "name": "",
          "type": "string"
        }
      ],
      "name": "rarityMintedCount",
      "outputs": [
        {
          "internalType": "uint256",
          "name": "",
          "type": "uint256"
        }
      ],
      "stateMutability": "view",
      "type": "function"
    },
    {
      "inputs": [],
      "name": "renounceOwnership",
      "outputs": [],
      "stateMutability": "nonpayable",
      "type": "function"
    },
    {
      "inputs": [
        {
          "internalType": "address",
          "name": "to",
          "type": "address"
        },
        {
          "internalType": "string",
          "name": "uri",
          "type": "string"
        }
      ],
      "name": "safeMint",
      "outputs": [],
      "stateMutability": "nonpayable",
      "type": "function"
    },
    {
      "inputs": [
        {
          "internalType": "address",
          "name": "from",
          "type": "address"
        },
        {
          "internalType": "address",
          "name": "to",
          "type": "address"
        },
        {
          "internalType": "uint256",
          "name": "tokenId",
          "type": "uint256"
        }
      ],
      "name": "safeTransferFrom",
      "outputs": [],
      "stateMutability": "nonpayable",
      "type": "function"
    },
    {
      "inputs": [
        {
          "internalType": "address",
          "name": "from",
          "type": "address"
        },
        {
          "internalType": "address",
          "name": "to",
          "type": "address"
        },
        {
          "internalType": "uint256",
          "name": "tokenId",
          "type": "uint256"
        },
        {
          "internalType": "bytes",
          "name": "data",
          "type": "bytes"
        }
      ],
      "name": "safeTransferFrom",
      "outputs": [],
      "stateMutability": "nonpayable",
      "type": "function"
    },
    {
      "inputs": [
        {
          "internalType": "address",
          "name": "operator",
          "type": "address"
        },
        {
          "internalType": "bool",
          "name": "approved",
          "type": "bool"
        }
      ],
      "name": "setApprovalForAll",
      "outputs": [],
      "stateMutability": "nonpayable",
      "type": "function"
    },
    {
      "inputs": [
        {
          "internalType": "bytes4",
          "name": "interfaceId",
          "type": "bytes4"
        }
      ],
      "name": "supportsInterface",
      "outputs": [
        {
          "internalType": "bool",
          "name": "",
          "type": "bool"
        }
      ],
      "stateMutability": "view",
      "type": "function"
    },
    {
      "inputs": [],
      "name": "symbol",
      "outputs": [
        {
          "internalType": "string",
          "name": "",
          "type": "string"
        }
      ],
      "stateMutability": "view",
      "type": "function"
    },
    {
      "inputs": [
        {
          "internalType": "uint256",
          "name": "",
          "type": "uint256"
        }
      ],
      "name": "tokenRarity",
      "outputs": [
        {
          "internalType": "string",
          "name": "",
          "type": "string"
        }
      ],
      "stateMutability": "view",
      "type": "function"
    },
    {
      "inputs": [
        {
          "internalType": "uint256",
          "name": "tokenId",
          "type": "uint256"
        }
      ],
      "name": "tokenURI",
      "outputs": [
        {
          "internalType": "string",
          "name": "",
          "type": "string"
        }
      ],
      "stateMutability": "view",
      "type": "function"
    },
    {
      "inputs": [
        {
          "internalType": "address",
          "name": "from",
          "type": "address"
        },
        {
          "internalType": "address",
          "name": "to",
          "type": "address"
        },
        {
          "internalType": "uint256",
          "name": "tokenId",
          "type": "uint256"
        }
      ],
      "name": "transferFrom",
      "outputs": [],
      "stateMutability": "nonpayable",
      "type": "function"
    },
    {
      "inputs": [
        {
          "internalType": "address",
          "name": "newOwner",
          "type": "address"
        }
      ],
      "name": "transferOwnership",
      "outputs": [],
      "stateMutability": "nonpayable",
      "type": "function"
    }
  ],
  "bytecode": "0x60806040526040518060a001604052806040518060400160405280600681526020017f436f6d6d6f6e000000000000000000000000000000000000000000000000000081525081526020016040518060400160405280600481526020017f526172650000000000000000000000000000000000000000000000000000000081525081526020016040518060400160405280600481526020017f457069630000000000000000000000000000000000000000000000000000000081525081526020016040518060400160405280600681526020017f4d7974686963000000000000000000000000000000000000000000000000000081525081526020016040518060400160405280600981526020017f4c6567656e646172790000000000000000000000000000000000000000000000815250815250600b9060056200014692919062000415565b503480156200015457600080fd5b5060405162003f9b38038062003f9b83398181016040528101906200017a91906200056c565b806040518060400160405280600881526020017f57617272696f72730000000000000000000000000000000000000000000000008152506040518060400160405280600381526020017f57415200000000000000000000000000000000000000000000000000000000008152508160009081620001f8919062000818565b5080600190816200020a919062000818565b505050600073ffffffffffffffffffffffffffffffffffffffff168173ffffffffffffffffffffffffffffffffffffffff1603620002825760006040517f1e4fbdf700000000000000000000000000000000000000000000000000000000815260040162000279919062000910565b60405180910390fd5b62000293816200034f60201b60201c565b506004600d604051620002a69062000988565b9081526020016040518091039020819055506004600d604051620002ca90620009ef565b9081526020016040518091039020819055506004600d604051620002ee9062000a56565b9081526020016040518091039020819055506004600d604051620003129062000abd565b9081526020016040518091039020819055506002600d604051620003369062000b24565b9081526020016040518091039020819055505062000b3b565b6000600760009054906101000a900473ffffffffffffffffffffffffffffffffffffffff16905081600760006101000a81548173ffffffffffffffffffffffffffffffffffffffff021916908373ffffffffffffffffffffffffffffffffffffffff1602179055508173ffffffffffffffffffffffffffffffffffffffff168173ffffffffffffffffffffffffffffffffffffffff167f8be0079c531659141344cd1fd0a4f28419497f9722a3daafe3b4186f6b6457e060405160405180910390a35050565b82805482825590600052602060002090810192821562000462579160200282015b828111156200046157825182908162000450919062000818565b509160200191906001019062000436565b5b50905062000471919062000475565b5090565b5b808211156200049957600081816200048f91906200049d565b5060010162000476565b5090565b508054620004ab9062000607565b6000825580601f10620004bf5750620004e0565b601f016020900490600052602060002090810190620004df9190620004e3565b5b50565b5b80821115620004fe576000816000905550600101620004e4565b5090565b600080fd5b600073ffffffffffffffffffffffffffffffffffffffff82169050919050565b6000620005348262000507565b9050919050565b620005468162000527565b81146200055257600080fd5b50565b60008151905062000566816200053b565b92915050565b60006020828403121562000585576200058462000502565b5b6000620005958482850162000555565b91505092915050565b600081519050919050565b7f4e487b7100000000000000000000000000000000000000000000000000000000600052604160045260246000fd5b7f4e487b7100000000000000000000000000000000000000000000000000000000600052602260045260246000fd5b600060028204905060018216806200062057607f821691505b602082108103620006365762000635620005d8565b5b50919050565b60008190508160005260206000209050919050565b60006020601f8301049050919050565b600082821b905092915050565b600060088302620006a07fffffffffffffffffffffffffffffffffffffffffffffffffffffffffffffffff8262000661565b620006ac868362000661565b95508019841693508086168417925050509392505050565b6000819050919050565b6000819050919050565b6000620006f9620006f3620006ed84620006c4565b620006ce565b620006c4565b9050919050565b6000819050919050565b6200071583620006d8565b6200072d620007248262000700565b8484546200066e565b825550505050565b600090565b6200074462000735565b620007518184846200070a565b505050565b5b8181101562000779576200076d6000826200073a565b60018101905062000757565b5050565b601f821115620007c85762000792816200063c565b6200079d8462000651565b81016020851015620007ad578190505b620007c5620007bc8562000651565b83018262000756565b50505b505050565b600082821c905092915050565b6000620007ed60001984600802620007cd565b1980831691505092915050565b6000620008088383620007da565b9150826002028217905092915050565b62000823826200059e565b67ffffffffffffffff8111156200083f576200083e620005a9565b5b6200084b825462000607565b620008588282856200077d565b600060209050601f8311600181146200089057600084156200087b578287015190505b620008878582620007fa565b865550620008f7565b601f198416620008a0866200063c565b60005b82811015620008ca57848901518255600182019150602085019450602081019050620008a3565b86831015620008ea5784890151620008e6601f891682620007da565b8355505b6001600288020188555050505b505050505050565b6200090a8162000527565b82525050565b6000602082019050620009276000830184620008ff565b92915050565b600081905092915050565b7f436f6d6d6f6e0000000000000000000000000000000000000000000000000000600082015250565b6000620009706006836200092d565b91506200097d8262000938565b600682019050919050565b6000620009958262000961565b9150819050919050565b7f5261726500000000000000000000000000000000000000000000000000000000600082015250565b6000620009d76004836200092d565b9150620009e4826200099f565b600482019050919050565b6000620009fc82620009c8565b9150819050919050565b7f4570696300000000000000000000000000000000000000000000000000000000600082015250565b600062000a3e6004836200092d565b915062000a4b8262000a06565b600482019050919050565b600062000a638262000a2f565b9150819050919050565b7f4d79746869630000000000000000000000000000000000000000000000000000600082015250565b600062000aa56006836200092d565b915062000ab28262000a6d565b600682019050919050565b600062000aca8262000a96565b9150819050919050565b7f4c6567656e646172790000000000000000000000000000000000000000000000600082015250565b600062000b0c6009836200092d565b915062000b198262000ad4565b600982019050919050565b600062000b318262000afd565b9150819050919050565b6134508062000b4b6000396000f3fe60806040526004361061019c5760003560e01c8063715018a6116100ec578063afb0a3691161008a578063d204c45e11610064578063d204c45e14610636578063d76d89501461065f578063e985e9c51461068f578063f2fde38b146106cc5761019c565b8063afb0a36914610593578063b88d4fde146105d0578063c87b56dd146105f95761019c565b806395d89b41116100c657806395d89b41146104c557806397ba5164146104f05780639f1cabc61461052d578063a22cb4651461056a5761019c565b8063715018a6146104465780638da5cb5b1461045d5780639515671f146104885761019c565b806342842e0e116101595780636352211e116101335780636352211e1461035257806367d71a171461038f578063680270a4146103cc57806370a08231146104095761019c565b806342842e0e146102c357806342966c68146102ec5780634748dce9146103155761019c565b806301ffc9a7146101a157806306661abd146101de57806306fdde0314610209578063081812fc14610234578063095ea7b31461027157806323b872dd1461029a575b600080fd5b3480156101ad57600080fd5b506101c860048036038101906101c39190612523565b6106f5565b6040516101d5919061256b565b60405180910390f35b3480156101ea57600080fd5b506101f3610707565b604051610200919061259f565b60405180910390f35b34801561021557600080fd5b5061021e610711565b60405161022b919061264a565b60405180910390f35b34801561024057600080fd5b5061025b60048036038101906102569190612698565b6107a3565b6040516102689190612706565b60405180910390f35b34801561027d57600080fd5b506102986004803603810190610293919061274d565b6107bf565b005b3480156102a657600080fd5b506102c160048036038101906102bc919061278d565b6107d5565b005b3480156102cf57600080fd5b506102ea60048036038101906102e5919061278d565b6108d7565b005b3480156102f857600080fd5b50610313600480360381019061030e9190612698565b6108f7565b005b34801561032157600080fd5b5061033c60048036038101906103379190612698565b61090e565b604051610349919061264a565b60405180910390f35b34801561035e57600080fd5b5061037960048036038101906103749190612698565b6109ba565b6040516103869190612706565b60405180910390f35b34801561039b57600080fd5b506103b660048036038101906103b19190612915565b6109cc565b6040516103c3919061259f565b60405180910390f35b3480156103d857600080fd5b506103f360048036038101906103ee9190612915565b6109fa565b604051610400919061259f565b60405180910390f35b34801561041557600080fd5b50610430600480360381019061042b919061295e565b610a28565b60405161043d919061259f565b60405180910390f35b34801561045257600080fd5b5061045b610ae2565b005b34801561046957600080fd5b50610472610af6565b60405161047f9190612706565b60405180910390f35b34801561049457600080fd5b506104af60048036038101906104aa919061298b565b610b20565b6040516104bc919061256b565b60405180910390f35b3480156104d157600080fd5b506104da610d20565b6040516104e7919061264a565b60405180910390f35b3480156104fc57600080fd5b506105176004803603810190610512919061298b565b610db2565b604051610524919061256b565b60405180910390f35b34801561053957600080fd5b50610554600480360381019061054f9190612915565b610eee565b604051610561919061256b565b60405180910390f35b34801561057657600080fd5b50610591600480360381019061058c91906129f7565b610f19565b005b34801561059f57600080fd5b506105ba60048036038101906105b59190612698565b610f2f565b6040516105c7919061264a565b60405180910390f35b3480156105dc57600080fd5b506105f760048036038101906105f29190612ad8565b610fcf565b005b34801561060557600080fd5b50610620600480360381019061061b9190612698565b610fec565b60405161062d919061264a565b60405180910390f35b34801561064257600080fd5b5061065d60048036038101906106589190612b5b565b610ffe565b005b61067960048036038101906106749190612bb7565b61103a565b604051610686919061259f565b60405180910390f35b34801561069b57600080fd5b506106b660048036038101906106b19190612c56565b6111ba565b6040516106c3919061256b565b60405180910390f35b3480156106d857600080fd5b506106f360048036038101906106ee919061295e565b61124e565b005b6000610700826112d4565b9050919050565b6000600854905090565b60606000805461072090612cc5565b80601f016020809104026020016040519081016040528092919081815260200182805461074c90612cc5565b80156107995780601f1061076e57610100808354040283529160200191610799565b820191906000526020600020905b81548152906001019060200180831161077c57829003601f168201915b5050505050905090565b60006107ae82611335565b506107b8826113bd565b9050919050565b6107d182826107cc6113fa565b611402565b5050565b600073ffffffffffffffffffffffffffffffffffffffff168273ffffffffffffffffffffffffffffffffffffffff16036108475760006040517f64a0ae9200000000000000000000000000000000000000000000000000000000815260040161083e9190612706565b60405180910390fd5b600061085b83836108566113fa565b611414565b90508373ffffffffffffffffffffffffffffffffffffffff168173ffffffffffffffffffffffffffffffffffffffff16146108d1578382826040517f64283d7b0000000000000000000000000000000000000000000000000000000081526004016108c893929190612cf6565b60405180910390fd5b50505050565b6108f283838360405180602001604052806000815250610fcf565b505050565b61090a6000826109056113fa565b611414565b5050565b600b818154811061091e57600080fd5b90600052602060002001600091509050805461093990612cc5565b80601f016020809104026020016040519081016040528092919081815260200182805461096590612cc5565b80156109b25780601f10610987576101008083540402835291602001916109b2565b820191906000526020600020905b81548152906001019060200180831161099557829003601f168201915b505050505081565b60006109c582611335565b9050919050565b600d818051602081018201805184825260208301602085012081835280955050505050506000915090505481565b600c818051602081018201805184825260208301602085012081835280955050505050506000915090505481565b60008073ffffffffffffffffffffffffffffffffffffffff168273ffffffffffffffffffffffffffffffffffffffff1603610a9b5760006040517f89c62b64000000000000000000000000000000000000000000000000000000008152600401610a929190612706565b60405180910390fd5b600360008373ffffffffffffffffffffffffffffffffffffffff1673ffffffffffffffffffffffffffffffffffffffff168152602001908152602001600020549050919050565b610aea61162e565b610af460006116b5565b565b6000600760009054906101000a900473ffffffffffffffffffffffffffffffffffffffff16905090565b600080600a60008581526020019081526020016000208054610b4190612cc5565b80601f0160208091040260200160405190810160405280929190818152602001828054610b6d90612cc5565b8015610bba5780601f10610b8f57610100808354040283529160200191610bba565b820191906000526020600020905b815481529060010190602001808311610b9d57829003601f168201915b505050505090506000600a60008581526020019081526020016000208054610be190612cc5565b80601f0160208091040260200160405190810160405280929190818152602001828054610c0d90612cc5565b8015610c5a5780601f10610c2f57610100808354040283529160200191610c5a565b820191906000526020600020905b815481529060010190602001808311610c3d57829003601f168201915b505050505090506040518060400160405280600981526020017f4c6567656e6461727900000000000000000000000000000000000000000000008152508051906020012082805190602001201480610cf457506040518060400160405280600981526020017f4c6567656e646172790000000000000000000000000000000000000000000000815250805190602001208180519060200120145b15610d0457600092505050610d1a565b8080519060200120828051906020012014925050505b92915050565b606060018054610d2f90612cc5565b80601f0160208091040260200160405190810160405280929190818152602001828054610d5b90612cc5565b8015610da85780601f10610d7d57610100808354040283529160200191610da8565b820191906000526020600020905b815481529060010190602001808311610d8b57829003601f168201915b5050505050905090565b600060016009610dc185610fec565b604051610dce9190612d69565b90815260200160405180910390205414610de784610fec565b604051602001610df79190612e18565b60405160208183030381529060405290610e47576040517f08c379a0000000000000000000000000000000000000000000000000000000008152600401610e3e919061264a565b60405180910390fd5b5060016009610e5584610fec565b604051610e629190612d69565b90815260200160405180910390205414610e7b83610fec565b604051602001610e8b9190612e91565b60405160208183030381529060405290610edb576040517f08c379a0000000000000000000000000000000000000000000000000000000008152600401610ed2919061264a565b60405180910390fd5b50610ee68383610b20565b905092915050565b60006001600983604051610f029190612d69565b908152602001604051809103902054149050919050565b610f2b610f246113fa565b838361177b565b5050565b600a6020528060005260406000206000915090508054610f4e90612cc5565b80601f0160208091040260200160405190810160405280929190818152602001828054610f7a90612cc5565b8015610fc75780601f10610f9c57610100808354040283529160200191610fc7565b820191906000526020600020905b815481529060010190602001808311610faa57829003601f168201915b505050505081565b610fda8484846107d5565b610fe6848484846118ea565b50505050565b6060610ff782611aa1565b9050919050565b61100661162e565b60006008600081548092919061101b90612eed565b91905055905061102b8382611bb4565b6110358183611bd2565b505050565b6000600160098460405161104e9190612d69565b9081526020016040518091039020540361109d576040517f08c379a000000000000000000000000000000000000000000000000000000000815260040161109490612f81565b60405180910390fd5b66b1a2bc2ec500003410156110e7576040517f08c379a00000000000000000000000000000000000000000000000000000000081526004016110de90612fed565b60405180910390fd5b600860008154809291906110fa90612eed565b919050555060016009846040516111119190612d69565b90815260200160405180910390208190555061112d8585611c2e565b6111378484611bd2565b81600a6000868152602001908152602001600020908161115791906131b9565b507f905e880dbaad9650287ca85db4d438b242e0743ad0695b07906040bedf3c66ae8360098560405161118a9190612d69565b9081526020016040518091039020546040516111a792919061328b565b60405180910390a1839050949350505050565b6000600560008473ffffffffffffffffffffffffffffffffffffffff1673ffffffffffffffffffffffffffffffffffffffff16815260200190815260200160002060008373ffffffffffffffffffffffffffffffffffffffff1673ffffffffffffffffffffffffffffffffffffffff16815260200190815260200160002060009054906101000a900460ff16905092915050565b61125661162e565b600073ffffffffffffffffffffffffffffffffffffffff168173ffffffffffffffffffffffffffffffffffffffff16036112c85760006040517f1e4fbdf70000000000000000000000000000000000000000000000000000000081526004016112bf9190612706565b60405180910390fd5b6112d1816116b5565b50565b6000634906490660e01b7bffffffffffffffffffffffffffffffffffffffffffffffffffffffff1916827bffffffffffffffffffffffffffffffffffffffffffffffffffffffff1916148061132e575061132d82611d27565b5b9050919050565b60008061134183611e09565b9050600073ffffffffffffffffffffffffffffffffffffffff168173ffffffffffffffffffffffffffffffffffffffff16036113b457826040517f7e2732890000000000000000000000000000000000000000000000000000000081526004016113ab919061259f565b60405180910390fd5b80915050919050565b60006004600083815260200190815260200160002060009054906101000a900473ffffffffffffffffffffffffffffffffffffffff169050919050565b600033905090565b61140f8383836001611e46565b505050565b60008061142084611e09565b9050600073ffffffffffffffffffffffffffffffffffffffff168373ffffffffffffffffffffffffffffffffffffffff16146114625761146181848661200b565b5b600073ffffffffffffffffffffffffffffffffffffffff168173ffffffffffffffffffffffffffffffffffffffff16146114f3576114a4600085600080611e46565b6001600360008373ffffffffffffffffffffffffffffffffffffffff1673ffffffffffffffffffffffffffffffffffffffff168152602001908152602001600020600082825403925050819055505b600073ffffffffffffffffffffffffffffffffffffffff168573ffffffffffffffffffffffffffffffffffffffff1614611576576001600360008773ffffffffffffffffffffffffffffffffffffffff1673ffffffffffffffffffffffffffffffffffffffff168152602001908152602001600020600082825401925050819055505b846002600086815260200190815260200160002060006101000a81548173ffffffffffffffffffffffffffffffffffffffff021916908373ffffffffffffffffffffffffffffffffffffffff160217905550838573ffffffffffffffffffffffffffffffffffffffff168273ffffffffffffffffffffffffffffffffffffffff167fddf252ad1be2c89b69c2b068fc378daa952ba7f163c4a11628f55a4df523b3ef60405160405180910390a4809150509392505050565b6116366113fa565b73ffffffffffffffffffffffffffffffffffffffff16611654610af6565b73ffffffffffffffffffffffffffffffffffffffff16146116b3576116776113fa565b6040517f118cdaa70000000000000000000000000000000000000000000000000000000081526004016116aa9190612706565b60405180910390fd5b565b6000600760009054906101000a900473ffffffffffffffffffffffffffffffffffffffff16905081600760006101000a81548173ffffffffffffffffffffffffffffffffffffffff021916908373ffffffffffffffffffffffffffffffffffffffff1602179055508173ffffffffffffffffffffffffffffffffffffffff168173ffffffffffffffffffffffffffffffffffffffff167f8be0079c531659141344cd1fd0a4f28419497f9722a3daafe3b4186f6b6457e060405160405180910390a35050565b600073ffffffffffffffffffffffffffffffffffffffff168273ffffffffffffffffffffffffffffffffffffffff16036117ec57816040517f5b08ba180000000000000000000000000000000000000000000000000000000081526004016117e39190612706565b60405180910390fd5b80600560008573ffffffffffffffffffffffffffffffffffffffff1673ffffffffffffffffffffffffffffffffffffffff16815260200190815260200160002060008473ffffffffffffffffffffffffffffffffffffffff1673ffffffffffffffffffffffffffffffffffffffff16815260200190815260200160002060006101000a81548160ff0219169083151502179055508173ffffffffffffffffffffffffffffffffffffffff168373ffffffffffffffffffffffffffffffffffffffff167f17307eab39ab6107e8899845ad3d59bd9653f200f220920489ca2b5937696c31836040516118dd919061256b565b60405180910390a3505050565b60008373ffffffffffffffffffffffffffffffffffffffff163b1115611a9b578273ffffffffffffffffffffffffffffffffffffffff1663150b7a0261192e6113fa565b8685856040518563ffffffff1660e01b81526004016119509493929190613310565b6020604051808303816000875af192505050801561198c57506040513d601f19601f820116820180604052508101906119899190613371565b60015b611a10573d80600081146119bc576040519150601f19603f3d011682016040523d82523d6000602084013e6119c1565b606091505b506000815103611a0857836040517f64a0ae920000000000000000000000000000000000000000000000000000000081526004016119ff9190612706565b60405180910390fd5b805181602001fd5b63150b7a0260e01b7bffffffffffffffffffffffffffffffffffffffffffffffffffffffff1916817bffffffffffffffffffffffffffffffffffffffffffffffffffffffff191614611a9957836040517f64a0ae92000000000000000000000000000000000000000000000000000000008152600401611a909190612706565b60405180910390fd5b505b50505050565b6060611aac82611335565b506000600660008481526020019081526020016000208054611acd90612cc5565b80601f0160208091040260200160405190810160405280929190818152602001828054611af990612cc5565b8015611b465780601f10611b1b57610100808354040283529160200191611b46565b820191906000526020600020905b815481529060010190602001808311611b2957829003601f168201915b505050505090506000611b576120cf565b90506000815103611b6c578192505050611baf565b600082511115611ba1578082604051602001611b8992919061339e565b60405160208183030381529060405292505050611baf565b611baa846120e6565b925050505b919050565b611bce82826040518060200160405280600081525061214f565b5050565b80600660008481526020019081526020016000209081611bf291906131b9565b507ff8e1a15aba9398e019f0b49df1a4fde98ee17ae345cb5f6b5e2c27f5033e8ce782604051611c22919061259f565b60405180910390a15050565b600073ffffffffffffffffffffffffffffffffffffffff168273ffffffffffffffffffffffffffffffffffffffff1603611ca05760006040517f64a0ae92000000000000000000000000000000000000000000000000000000008152600401611c979190612706565b60405180910390fd5b6000611cae83836000611414565b9050600073ffffffffffffffffffffffffffffffffffffffff168173ffffffffffffffffffffffffffffffffffffffff1614611d225760006040517f73c6ac6e000000000000000000000000000000000000000000000000000000008152600401611d199190612706565b60405180910390fd5b505050565b60007f80ac58cd000000000000000000000000000000000000000000000000000000007bffffffffffffffffffffffffffffffffffffffffffffffffffffffff1916827bffffffffffffffffffffffffffffffffffffffffffffffffffffffff19161480611df257507f5b5e139f000000000000000000000000000000000000000000000000000000007bffffffffffffffffffffffffffffffffffffffffffffffffffffffff1916827bffffffffffffffffffffffffffffffffffffffffffffffffffffffff1916145b80611e025750611e018261216b565b5b9050919050565b60006002600083815260200190815260200160002060009054906101000a900473ffffffffffffffffffffffffffffffffffffffff169050919050565b8080611e7f5750600073ffffffffffffffffffffffffffffffffffffffff168273ffffffffffffffffffffffffffffffffffffffff1614155b15611fb3576000611e8f84611335565b9050600073ffffffffffffffffffffffffffffffffffffffff168373ffffffffffffffffffffffffffffffffffffffff1614158015611efa57508273ffffffffffffffffffffffffffffffffffffffff168173ffffffffffffffffffffffffffffffffffffffff1614155b8015611f0d5750611f0b81846111ba565b155b15611f4f57826040517fa9fbf51f000000000000000000000000000000000000000000000000000000008152600401611f469190612706565b60405180910390fd5b8115611fb157838573ffffffffffffffffffffffffffffffffffffffff168273ffffffffffffffffffffffffffffffffffffffff167f8c5be1e5ebec7d5bd14f71427d1e84f3dd0314c0f7b2291e5b200ac8c7c3b92560405160405180910390a45b505b836004600085815260200190815260200160002060006101000a81548173ffffffffffffffffffffffffffffffffffffffff021916908373ffffffffffffffffffffffffffffffffffffffff16021790555050505050565b6120168383836121d5565b6120ca57600073ffffffffffffffffffffffffffffffffffffffff168373ffffffffffffffffffffffffffffffffffffffff160361208b57806040517f7e273289000000000000000000000000000000000000000000000000000000008152600401612082919061259f565b60405180910390fd5b81816040517f177e802f0000000000000000000000000000000000000000000000000000000081526004016120c19291906133c2565b60405180910390fd5b505050565b606060405180602001604052806000815250905090565b60606120f182611335565b5060006120fc6120cf565b9050600081511161211c5760405180602001604052806000815250612147565b8061212684612296565b60405160200161213792919061339e565b6040516020818303038152906040525b915050919050565b6121598383611c2e565b61216660008484846118ea565b505050565b60007f01ffc9a7000000000000000000000000000000000000000000000000000000007bffffffffffffffffffffffffffffffffffffffffffffffffffffffff1916827bffffffffffffffffffffffffffffffffffffffffffffffffffffffff1916149050919050565b60008073ffffffffffffffffffffffffffffffffffffffff168373ffffffffffffffffffffffffffffffffffffffff161415801561228d57508273ffffffffffffffffffffffffffffffffffffffff168473ffffffffffffffffffffffffffffffffffffffff16148061224e575061224d84846111ba565b5b8061228c57508273ffffffffffffffffffffffffffffffffffffffff16612274836113bd565b73ffffffffffffffffffffffffffffffffffffffff16145b5b90509392505050565b6060600060016122a584612364565b01905060008167ffffffffffffffff8111156122c4576122c36127ea565b5b6040519080825280601f01601f1916602001820160405280156122f65781602001600182028036833780820191505090505b509050600082602001820190505b600115612359578080600190039150507f3031323334353637383961626364656600000000000000000000000000000000600a86061a8153600a858161234d5761234c6133eb565b5b04945060008503612304575b819350505050919050565b600080600090507a184f03e93ff9f4daa797ed6e38ed64bf6a1f01000000000000000083106123c2577a184f03e93ff9f4daa797ed6e38ed64bf6a1f01000000000000000083816123b8576123b76133eb565b5b0492506040810190505b6d04ee2d6d415b85acef810000000083106123ff576d04ee2d6d415b85acef810000000083816123f5576123f46133eb565b5b0492506020810190505b662386f26fc10000831061242e57662386f26fc100008381612424576124236133eb565b5b0492506010810190505b6305f5e1008310612457576305f5e100838161244d5761244c6133eb565b5b0492506008810190505b612710831061247c576127108381612472576124716133eb565b5b0492506004810190505b6064831061249f5760648381612495576124946133eb565b5b0492506002810190505b600a83106124ae576001810190505b80915050919050565b6000604051905090565b600080fd5b600080fd5b60007fffffffff0000000000000000000000000000000000000000000000000000000082169050919050565b612500816124cb565b811461250b57600080fd5b50565b60008135905061251d816124f7565b92915050565b600060208284031215612539576125386124c1565b5b60006125478482850161250e565b91505092915050565b60008115159050919050565b61256581612550565b82525050565b6000602082019050612580600083018461255c565b92915050565b6000819050919050565b61259981612586565b82525050565b60006020820190506125b46000830184612590565b92915050565b600081519050919050565b600082825260208201905092915050565b60005b838110156125f45780820151818401526020810190506125d9565b60008484015250505050565b6000601f19601f8301169050919050565b600061261c826125ba565b61262681856125c5565b93506126368185602086016125d6565b61263f81612600565b840191505092915050565b600060208201905081810360008301526126648184612611565b905092915050565b61267581612586565b811461268057600080fd5b50565b6000813590506126928161266c565b92915050565b6000602082840312156126ae576126ad6124c1565b5b60006126bc84828501612683565b91505092915050565b600073ffffffffffffffffffffffffffffffffffffffff82169050919050565b60006126f0826126c5565b9050919050565b612700816126e5565b82525050565b600060208201905061271b60008301846126f7565b92915050565b61272a816126e5565b811461273557600080fd5b50565b60008135905061274781612721565b92915050565b60008060408385031215612764576127636124c1565b5b600061277285828601612738565b925050602061278385828601612683565b9150509250929050565b6000806000606084860312156127a6576127a56124c1565b5b60006127b486828701612738565b93505060206127c586828701612738565b92505060406127d686828701612683565b9150509250925092565b600080fd5b600080fd5b7f4e487b7100000000000000000000000000000000000000000000000000000000600052604160045260246000fd5b61282282612600565b810181811067ffffffffffffffff82111715612841576128406127ea565b5b80604052505050565b60006128546124b7565b90506128608282612819565b919050565b600067ffffffffffffffff8211156128805761287f6127ea565b5b61288982612600565b9050602081019050919050565b82818337600083830152505050565b60006128b86128b384612865565b61284a565b9050828152602081018484840111156128d4576128d36127e5565b5b6128df848285612896565b509392505050565b600082601f8301126128fc576128fb6127e0565b5b813561290c8482602086016128a5565b91505092915050565b60006020828403121561292b5761292a6124c1565b5b600082013567ffffffffffffffff811115612949576129486124c6565b5b612955848285016128e7565b91505092915050565b600060208284031215612974576129736124c1565b5b600061298284828501612738565b91505092915050565b600080604083850312156129a2576129a16124c1565b5b60006129b085828601612683565b92505060206129c185828601612683565b9150509250929050565b6129d481612550565b81146129df57600080fd5b50565b6000813590506129f1816129cb565b92915050565b60008060408385031215612a0e57612a0d6124c1565b5b6000612a1c85828601612738565b9250506020612a2d858286016129e2565b9150509250929050565b600067ffffffffffffffff821115612a5257612a516127ea565b5b612a5b82612600565b9050602081019050919050565b6000612a7b612a7684612a37565b61284a565b905082815260208101848484011115612a9757612a966127e5565b5b612aa2848285612896565b509392505050565b600082601f830112612abf57612abe6127e0565b5b8135612acf848260208601612a68565b91505092915050565b60008060008060808587031215612af257612af16124c1565b5b6000612b0087828801612738565b9450506020612b1187828801612738565b9350506040612b2287828801612683565b925050606085013567ffffffffffffffff811115612b4357612b426124c6565b5b612b4f87828801612aaa565b91505092959194509250565b60008060408385031215612b7257612b716124c1565b5b6000612b8085828601612738565b925050602083013567ffffffffffffffff811115612ba157612ba06124c6565b5b612bad858286016128e7565b9150509250929050565b60008060008060808587031215612bd157612bd06124c1565b5b6000612bdf87828801612738565b9450506020612bf087828801612683565b935050604085013567ffffffffffffffff811115612c1157612c106124c6565b5b612c1d878288016128e7565b925050606085013567ffffffffffffffff811115612c3e57612c3d6124c6565b5b612c4a878288016128e7565b91505092959194509250565b60008060408385031215612c6d57612c6c6124c1565b5b6000612c7b85828601612738565b9250506020612c8c85828601612738565b9150509250929050565b7f4e487b7100000000000000000000000000000000000000000000000000000000600052602260045260246000fd5b60006002820490506001821680612cdd57607f821691505b602082108103612cf057612cef612c96565b5b50919050565b6000606082019050612d0b60008301866126f7565b612d186020830185612590565b612d2560408301846126f7565b949350505050565b600081905092915050565b6000612d43826125ba565b612d4d8185612d2d565b9350612d5d8185602086016125d6565b80840191505092915050565b6000612d758284612d38565b915081905092915050565b7f546f6b656e203120000000000000000000000000000000000000000000000000600082015250565b6000612db6600883612d2d565b9150612dc182612d80565b600882019050919050565b7f20646f6573206e6f742065786973740000000000000000000000000000000000600082015250565b6000612e02600f83612d2d565b9150612e0d82612dcc565b600f82019050919050565b6000612e2382612da9565b9150612e2f8284612d38565b9150612e3a82612df5565b915081905092915050565b7f546f6b656e203220000000000000000000000000000000000000000000000000600082015250565b6000612e7b600883612d2d565b9150612e8682612e45565b600882019050919050565b6000612e9c82612e6e565b9150612ea88284612d38565b9150612eb382612df5565b915081905092915050565b7f4e487b7100000000000000000000000000000000000000000000000000000000600052601160045260246000fd5b6000612ef882612586565b91507fffffffffffffffffffffffffffffffffffffffffffffffffffffffffffffffff8203612f2a57612f29612ebe565b5b600182019050919050565b7f4e465420616c7265616479206d696e7465642100000000000000000000000000600082015250565b6000612f6b6013836125c5565b9150612f7682612f35565b602082019050919050565b60006020820190508181036000830152612f9a81612f5e565b9050919050565b7f496e73756666696369656e7420616d6f756e7421000000000000000000000000600082015250565b6000612fd76014836125c5565b9150612fe282612fa1565b602082019050919050565b6000602082019050818103600083015261300681612fca565b9050919050565b60008190508160005260206000209050919050565b60006020601f8301049050919050565b600082821b905092915050565b60006008830261306f7fffffffffffffffffffffffffffffffffffffffffffffffffffffffffffffffff82613032565b6130798683613032565b95508019841693508086168417925050509392505050565b6000819050919050565b60006130b66130b16130ac84612586565b613091565b612586565b9050919050565b6000819050919050565b6130d08361309b565b6130e46130dc826130bd565b84845461303f565b825550505050565b600090565b6130f96130ec565b6131048184846130c7565b505050565b5b818110156131285761311d6000826130f1565b60018101905061310a565b5050565b601f82111561316d5761313e8161300d565b61314784613022565b81016020851015613156578190505b61316a61316285613022565b830182613109565b50505b505050565b600082821c905092915050565b600061319060001984600802613172565b1980831691505092915050565b60006131a9838361317f565b9150826002028217905092915050565b6131c2826125ba565b67ffffffffffffffff8111156131db576131da6127ea565b5b6131e58254612cc5565b6131f082828561312c565b600060209050601f8311600181146132235760008415613211578287015190505b61321b858261319d565b865550613283565b601f1984166132318661300d565b60005b8281101561325957848901518255600182019150602085019450602081019050613234565b868310156132765784890151613272601f89168261317f565b8355505b6001600288020188555050505b505050505050565b600060408201905081810360008301526132a58185612611565b90506132b46020830184612590565b9392505050565b600081519050919050565b600082825260208201905092915050565b60006132e2826132bb565b6132ec81856132c6565b93506132fc8185602086016125d6565b61330581612600565b840191505092915050565b600060808201905061332560008301876126f7565b61333260208301866126f7565b61333f6040830185612590565b818103606083015261335181846132d7565b905095945050505050565b60008151905061336b816124f7565b92915050565b600060208284031215613387576133866124c1565b5b60006133958482850161335c565b91505092915050565b60006133aa8285612d38565b91506133b68284612d38565b91508190509392505050565b60006040820190506133d760008301856126f7565b6133e46020830184612590565b9392505050565b7f4e487b7100000000000000000000000000000000000000000000000000000000600052601260045260246000fdfea26469706673582212207aff296ef85a721e359904beb0bd1625545a22a84afd6a5bd3d5dc9f4b21b81b64736f6c63430008140033",
  "linkReferences": {},
  "deployedLinkReferences": {}
}