{
  "_format": "hh-sol-artifact-1",
  "contractName": "Warriors",
  "sourceName": "contracts/WarriorsNFT.sol",
  "abi": [
    {
      "inputs": [
        {
          "internalType": "address",
          "name": "initialOwner",
          "type": "address"
        }
      ],
      "stateMutability": "nonpayable",
      "type": "constructor"
    },
    {
      "inputs": [
        {
          "internalType": "address",
          "name": "sender",
          "type": "address"
        },
        {
          "internalType": "uint256",
          "name": "tokenId",
          "type": "uint256"
        },
        {
          "internalType": "address",
          "name": "owner",
          "type": "address"
        }
      ],
      "name": "ERC721IncorrectOwner",
      "type": "error"
    },
    {
      "inputs": [
        {
          "internalType": "address",
          "name": "operator",
          "type": "address"
        },
        {
          "internalType": "uint256",
          "name": "tokenId",
          "type": "uint256"
        }
      ],
      "name": "ERC721InsufficientApproval",
      "type": "error"
    },
    {
      "inputs": [
        {
          "internalType": "address",
          "name": "approver",
          "type": "address"
        }
      ],
      "name": "ERC721InvalidApprover",
      "type": "error"
    },
    {
      "inputs": [
        {
          "internalType": "address",
          "name": "operator",
          "type": "address"
        }
      ],
      "name": "ERC721InvalidOperator",
      "type": "error"
    },
    {
      "inputs": [
        {
          "internalType": "address",
          "name": "owner",
          "type": "address"
        }
      ],
      "name": "ERC721InvalidOwner",
      "type": "error"
    },
    {
      "inputs": [
        {
          "internalType": "address",
          "name": "receiver",
          "type": "address"
        }
      ],
      "name": "ERC721InvalidReceiver",
      "type": "error"
    },
    {
      "inputs": [
        {
          "internalType": "address",
          "name": "sender",
          "type": "address"
        }
      ],
      "name": "ERC721InvalidSender",
      "type": "error"
    },
    {
      "inputs": [
        {
          "internalType": "uint256",
          "name": "tokenId",
          "type": "uint256"
        }
      ],
      "name": "ERC721NonexistentToken",
      "type": "error"
    },
    {
      "inputs": [
        {
          "internalType": "address",
          "name": "owner",
          "type": "address"
        }
      ],
      "name": "OwnableInvalidOwner",
      "type": "error"
    },
    {
      "inputs": [
        {
          "internalType": "address",
          "name": "account",
          "type": "address"
        }
      ],
      "name": "OwnableUnauthorizedAccount",
      "type": "error"
    },
    {
      "anonymous": false,
      "inputs": [
        {
          "indexed": true,
          "internalType": "address",
          "name": "owner",
          "type": "address"
        },
        {
          "indexed": true,
          "internalType": "address",
          "name": "approved",
          "type": "address"
        },
        {
          "indexed": true,
          "internalType": "uint256",
          "name": "tokenId",
          "type": "uint256"
        }
      ],
      "name": "Approval",
      "type": "event"
    },
    {
      "anonymous": false,
      "inputs": [
        {
          "indexed": true,
          "internalType": "address",
          "name": "owner",
          "type": "address"
        },
        {
          "indexed": true,
          "internalType": "address",
          "name": "operator",
          "type": "address"
        },
        {
          "indexed": false,
          "internalType": "bool",
          "name": "approved",
          "type": "bool"
        }
      ],
      "name": "ApprovalForAll",
      "type": "event"
    },
    {
      "anonymous": false,
      "inputs": [
        {
          "indexed": false,
          "internalType": "uint256",
          "name": "_fromTokenId",
          "type": "uint256"
        },
        {
          "indexed": false,
          "internalType": "uint256",
          "name": "_toTokenId",
          "type": "uint256"
        }
      ],
      "name": "BatchMetadataUpdate",
      "type": "event"
    },
    {
      "anonymous": false,
      "inputs": [
        {
          "indexed": false,
          "internalType": "uint256",
          "name": "tokenId1",
          "type": "uint256"
        },
        {
          "indexed": false,
          "internalType": "uint256",
          "name": "tokenId2",
          "type": "uint256"
        },
        {
          "indexed": false,
          "internalType": "string",
          "name": "nextRarity",
          "type": "string"
        }
      ],
      "name": "MergeSuccess",
      "type": "event"
    },
    {
      "anonymous": false,
      "inputs": [
        {
          "indexed": false,
          "internalType": "uint256",
          "name": "_tokenId",
          "type": "uint256"
        }
      ],
      "name": "MetadataUpdate",
      "type": "event"
    },
    {
      "anonymous": false,
      "inputs": [
        {
          "indexed": true,
          "internalType": "address",
          "name": "previousOwner",
          "type": "address"
        },
        {
          "indexed": true,
          "internalType": "address",
          "name": "newOwner",
          "type": "address"
        }
      ],
      "name": "OwnershipTransferred",
      "type": "event"
    },
    {
      "anonymous": false,
      "inputs": [
        {
          "indexed": false,
          "internalType": "string",
          "name": "tokenURI",
          "type": "string"
        },
        {
          "indexed": false,
          "internalType": "uint256",
          "name": "uri",
          "type": "uint256"
        }
      ],
      "name": "TokenExistenceCheck",
      "type": "event"
    },
    {
      "anonymous": false,
      "inputs": [
        {
          "indexed": false,
          "internalType": "uint256",
          "name": "tokenId1",
          "type": "uint256"
        },
        {
          "indexed": false,
          "internalType": "uint256",
          "name": "tokenId2",
          "type": "uint256"
        }
      ],
      "name": "TokensBurned",
      "type": "event"
    },
    {
      "anonymous": false,
      "inputs": [
        {
          "indexed": true,
          "internalType": "address",
          "name": "from",
          "type": "address"
        },
        {
          "indexed": true,
          "internalType": "address",
          "name": "to",
          "type": "address"
        },
        {
          "indexed": true,
          "internalType": "uint256",
          "name": "tokenId",
          "type": "uint256"
        }
      ],
      "name": "Transfer",
      "type": "event"
    },
    {
      "inputs": [
        {
          "internalType": "address",
          "name": "to",
          "type": "address"
        },
        {
          "internalType": "uint256",
          "name": "tokenId",
          "type": "uint256"
        }
      ],
      "name": "approve",
      "outputs": [],
      "stateMutability": "nonpayable",
      "type": "function"
    },
    {
      "inputs": [
        {
          "internalType": "address",
          "name": "owner",
          "type": "address"
        }
      ],
      "name": "balanceOf",
      "outputs": [
        {
          "internalType": "uint256",
          "name": "",
          "type": "uint256"
        }
      ],
      "stateMutability": "view",
      "type": "function"
    },
    {
      "inputs": [
        {
          "internalType": "uint256",
          "name": "tokenId",
          "type": "uint256"
        }
      ],
      "name": "burn",
      "outputs": [],
      "stateMutability": "nonpayable",
      "type": "function"
    },
    {
      "inputs": [
        {
          "internalType": "uint256",
          "name": "tokenId1",
          "type": "uint256"
        },
        {
          "internalType": "uint256",
          "name": "tokenId2",
          "type": "uint256"
        }
      ],
      "name": "canMerge",
      "outputs": [
        {
          "internalType": "bool",
          "name": "",
          "type": "bool"
        }
      ],
      "stateMutability": "view",
      "type": "function"
    },
    {
      "inputs": [
        {
          "internalType": "uint256",
          "name": "tokenId1",
          "type": "uint256"
        },
        {
          "internalType": "uint256",
          "name": "tokenId2",
          "type": "uint256"
        }
      ],
      "name": "compareRarity",
      "outputs": [
        {
          "internalType": "bool",
          "name": "",
          "type": "bool"
        }
      ],
      "stateMutability": "view",
      "type": "function"
    },
    {
      "inputs": [],
      "name": "count",
      "outputs": [
        {
          "internalType": "uint256",
          "name": "",
          "type": "uint256"
        }
      ],
      "stateMutability": "view",
      "type": "function"
    },
    {
      "inputs": [
        {
          "internalType": "uint256",
          "name": "tokenId",
          "type": "uint256"
        }
      ],
      "name": "getApproved",
      "outputs": [
        {
          "internalType": "address",
          "name": "",
          "type": "address"
        }
      ],
      "stateMutability": "view",
      "type": "function"
    },
    {
      "inputs": [
        {
          "internalType": "string",
          "name": "currentRarity",
          "type": "string"
        }
      ],
      "name": "getNextRarity",
      "outputs": [
        {
          "internalType": "string",
          "name": "",
          "type": "string"
        }
      ],
      "stateMutability": "view",
      "type": "function"
    },
    {
      "inputs": [
        {
          "internalType": "address",
          "name": "owner",
          "type": "address"
        },
        {
          "internalType": "address",
          "name": "operator",
          "type": "address"
        }
      ],
      "name": "isApprovedForAll",
      "outputs": [
        {
          "internalType": "bool",
          "name": "",
          "type": "bool"
        }
      ],
      "stateMutability": "view",
      "type": "function"
    },
    {
      "inputs": [
        {
          "internalType": "string",
          "name": "uri",
          "type": "string"
        }
      ],
      "name": "isContentOwned",
      "outputs": [
        {
          "internalType": "bool",
          "name": "",
          "type": "bool"
        }
      ],
      "stateMutability": "view",
      "type": "function"
    },
    {
      "inputs": [
        {
          "internalType": "uint256",
          "name": "tokenId1",
          "type": "uint256"
        },
        {
          "internalType": "uint256",
          "name": "tokenId2",
          "type": "uint256"
        }
      ],
      "name": "mergeTokens",
      "outputs": [],
      "stateMutability": "nonpayable",
      "type": "function"
    },
    {
      "inputs": [],
      "name": "name",
      "outputs": [
        {
          "internalType": "string",
          "name": "",
          "type": "string"
        }
      ],
      "stateMutability": "view",
      "type": "function"
    },
    {
      "inputs": [],
      "name": "owner",
      "outputs": [
        {
          "internalType": "address",
          "name": "",
          "type": "address"
        }
      ],
      "stateMutability": "view",
      "type": "function"
    },
    {
      "inputs": [
        {
          "internalType": "uint256",
          "name": "tokenId",
          "type": "uint256"
        }
      ],
      "name": "ownerOf",
      "outputs": [
        {
          "internalType": "address",
          "name": "",
          "type": "address"
        }
      ],
      "stateMutability": "view",
      "type": "function"
    },
    {
      "inputs": [
        {
          "internalType": "address",
          "name": "recipient",
          "type": "address"
        },
        {
          "internalType": "uint256",
          "name": "tokenId",
          "type": "uint256"
        },
        {
          "internalType": "string",
          "name": "metadataURI",
          "type": "string"
        },
        {
          "internalType": "string",
          "name": "rarity",
          "type": "string"
        }
      ],
      "name": "payToMint",
      "outputs": [
        {
          "internalType": "uint256",
          "name": "",
          "type": "uint256"
        }
      ],
      "stateMutability": "payable",
      "type": "function"
    },
    {
      "inputs": [
        {
          "internalType": "uint256",
          "name": "",
          "type": "uint256"
        }
      ],
      "name": "rarityLevels",
      "outputs": [
        {
          "internalType": "string",
          "name": "",
          "type": "string"
        }
      ],
      "stateMutability": "view",
      "type": "function"
    },
    {
      "inputs": [
        {
          "internalType": "string",
          "name": "",
          "type": "string"
        }
      ],
      "name": "rarityMaxCount",
      "outputs": [
        {
          "internalType": "uint256",
          "name": "",
          "type": "uint256"
        }
      ],
      "stateMutability": "view",
      "type": "function"
    },
    {
      "inputs": [
        {
          "internalType": "string",
          "name": "",
          "type": "string"
        }
      ],
      "name": "rarityMintedCount",
      "outputs": [
        {
          "internalType": "uint256",
          "name": "",
          "type": "uint256"
        }
      ],
      "stateMutability": "view",
      "type": "function"
    },
    {
      "inputs": [],
      "name": "renounceOwnership",
      "outputs": [],
      "stateMutability": "nonpayable",
      "type": "function"
    },
    {
      "inputs": [
        {
          "internalType": "address",
          "name": "recipient",
          "type": "address"
        },
        {
          "internalType": "uint256",
          "name": "tokenId",
          "type": "uint256"
        },
        {
          "internalType": "string",
          "name": "metadataURI",
          "type": "string"
        },
        {
          "internalType": "string",
          "name": "rarity",
          "type": "string"
        }
      ],
      "name": "safeMint",
      "outputs": [
        {
          "internalType": "uint256",
          "name": "",
          "type": "uint256"
        }
      ],
      "stateMutability": "nonpayable",
      "type": "function"
    },
    {
      "inputs": [
        {
          "internalType": "address",
          "name": "from",
          "type": "address"
        },
        {
          "internalType": "address",
          "name": "to",
          "type": "address"
        },
        {
          "internalType": "uint256",
          "name": "tokenId",
          "type": "uint256"
        }
      ],
      "name": "safeTransferFrom",
      "outputs": [],
      "stateMutability": "nonpayable",
      "type": "function"
    },
    {
      "inputs": [
        {
          "internalType": "address",
          "name": "from",
          "type": "address"
        },
        {
          "internalType": "address",
          "name": "to",
          "type": "address"
        },
        {
          "internalType": "uint256",
          "name": "tokenId",
          "type": "uint256"
        },
        {
          "internalType": "bytes",
          "name": "data",
          "type": "bytes"
        }
      ],
      "name": "safeTransferFrom",
      "outputs": [],
      "stateMutability": "nonpayable",
      "type": "function"
    },
    {
      "inputs": [
        {
          "internalType": "address",
          "name": "operator",
          "type": "address"
        },
        {
          "internalType": "bool",
          "name": "approved",
          "type": "bool"
        }
      ],
      "name": "setApprovalForAll",
      "outputs": [],
      "stateMutability": "nonpayable",
      "type": "function"
    },
    {
      "inputs": [
        {
          "internalType": "bytes4",
          "name": "interfaceId",
          "type": "bytes4"
        }
      ],
      "name": "supportsInterface",
      "outputs": [
        {
          "internalType": "bool",
          "name": "",
          "type": "bool"
        }
      ],
      "stateMutability": "view",
      "type": "function"
    },
    {
      "inputs": [],
      "name": "symbol",
      "outputs": [
        {
          "internalType": "string",
          "name": "",
          "type": "string"
        }
      ],
      "stateMutability": "view",
      "type": "function"
    },
    {
      "inputs": [
        {
          "internalType": "uint256",
          "name": "",
          "type": "uint256"
        }
      ],
      "name": "tokenRarity",
      "outputs": [
        {
          "internalType": "string",
          "name": "",
          "type": "string"
        }
      ],
      "stateMutability": "view",
      "type": "function"
    },
    {
      "inputs": [
        {
          "internalType": "uint256",
          "name": "tokenId",
          "type": "uint256"
        }
      ],
      "name": "tokenURI",
      "outputs": [
        {
          "internalType": "string",
          "name": "",
          "type": "string"
        }
      ],
      "stateMutability": "view",
      "type": "function"
    },
    {
      "inputs": [
        {
          "internalType": "address",
          "name": "from",
          "type": "address"
        },
        {
          "internalType": "address",
          "name": "to",
          "type": "address"
        },
        {
          "internalType": "uint256",
          "name": "tokenId",
          "type": "uint256"
        }
      ],
      "name": "transferFrom",
      "outputs": [],
      "stateMutability": "nonpayable",
      "type": "function"
    },
    {
      "inputs": [
        {
          "internalType": "address",
          "name": "newOwner",
          "type": "address"
        }
      ],
      "name": "transferOwnership",
      "outputs": [],
      "stateMutability": "nonpayable",
      "type": "function"
    }
  ],
  "bytecode": "0x60806040526040518060a001604052806040518060400160405280600681526020017f436f6d6d6f6e000000000000000000000000000000000000000000000000000081525081526020016040518060400160405280600481526020017f526172650000000000000000000000000000000000000000000000000000000081525081526020016040518060400160405280600481526020017f457069630000000000000000000000000000000000000000000000000000000081525081526020016040518060400160405280600681526020017f4d7974686963000000000000000000000000000000000000000000000000000081525081526020016040518060400160405280600981526020017f4c6567656e646172790000000000000000000000000000000000000000000000815250815250600d9060056200014692919062000415565b503480156200015457600080fd5b506040516200475e3803806200475e83398181016040528101906200017a91906200056c565b806040518060400160405280600881526020017f57617272696f72730000000000000000000000000000000000000000000000008152506040518060400160405280600381526020017f57415200000000000000000000000000000000000000000000000000000000008152508160009081620001f8919062000818565b5080600190816200020a919062000818565b505050600073ffffffffffffffffffffffffffffffffffffffff168173ffffffffffffffffffffffffffffffffffffffff1603620002825760006040517f1e4fbdf700000000000000000000000000000000000000000000000000000000815260040162000279919062000910565b60405180910390fd5b62000293816200034f60201b60201c565b506004600b604051620002a69062000988565b9081526020016040518091039020819055506004600b604051620002ca90620009ef565b9081526020016040518091039020819055506004600b604051620002ee9062000a56565b9081526020016040518091039020819055506004600b604051620003129062000abd565b9081526020016040518091039020819055506002600b604051620003369062000b24565b9081526020016040518091039020819055505062000b3b565b6000600760009054906101000a900473ffffffffffffffffffffffffffffffffffffffff16905081600760006101000a81548173ffffffffffffffffffffffffffffffffffffffff021916908373ffffffffffffffffffffffffffffffffffffffff1602179055508173ffffffffffffffffffffffffffffffffffffffff168173ffffffffffffffffffffffffffffffffffffffff167f8be0079c531659141344cd1fd0a4f28419497f9722a3daafe3b4186f6b6457e060405160405180910390a35050565b82805482825590600052602060002090810192821562000462579160200282015b828111156200046157825182908162000450919062000818565b509160200191906001019062000436565b5b50905062000471919062000475565b5090565b5b808211156200049957600081816200048f91906200049d565b5060010162000476565b5090565b508054620004ab9062000607565b6000825580601f10620004bf5750620004e0565b601f016020900490600052602060002090810190620004df9190620004e3565b5b50565b5b80821115620004fe576000816000905550600101620004e4565b5090565b600080fd5b600073ffffffffffffffffffffffffffffffffffffffff82169050919050565b6000620005348262000507565b9050919050565b620005468162000527565b81146200055257600080fd5b50565b60008151905062000566816200053b565b92915050565b60006020828403121562000585576200058462000502565b5b6000620005958482850162000555565b91505092915050565b600081519050919050565b7f4e487b7100000000000000000000000000000000000000000000000000000000600052604160045260246000fd5b7f4e487b7100000000000000000000000000000000000000000000000000000000600052602260045260246000fd5b600060028204905060018216806200062057607f821691505b602082108103620006365762000635620005d8565b5b50919050565b60008190508160005260206000209050919050565b60006020601f8301049050919050565b600082821b905092915050565b600060088302620006a07fffffffffffffffffffffffffffffffffffffffffffffffffffffffffffffffff8262000661565b620006ac868362000661565b95508019841693508086168417925050509392505050565b6000819050919050565b6000819050919050565b6000620006f9620006f3620006ed84620006c4565b620006ce565b620006c4565b9050919050565b6000819050919050565b6200071583620006d8565b6200072d620007248262000700565b8484546200066e565b825550505050565b600090565b6200074462000735565b620007518184846200070a565b505050565b5b8181101562000779576200076d6000826200073a565b60018101905062000757565b5050565b601f821115620007c85762000792816200063c565b6200079d8462000651565b81016020851015620007ad578190505b620007c5620007bc8562000651565b83018262000756565b50505b505050565b600082821c905092915050565b6000620007ed60001984600802620007cd565b1980831691505092915050565b6000620008088383620007da565b9150826002028217905092915050565b62000823826200059e565b67ffffffffffffffff8111156200083f576200083e620005a9565b5b6200084b825462000607565b620008588282856200077d565b600060209050601f8311600181146200089057600084156200087b578287015190505b620008878582620007fa565b865550620008f7565b601f198416620008a0866200063c565b60005b82811015620008ca57848901518255600182019150602085019450602081019050620008a3565b86831015620008ea5784890151620008e6601f891682620007da565b8355505b6001600288020188555050505b505050505050565b6200090a8162000527565b82525050565b6000602082019050620009276000830184620008ff565b92915050565b600081905092915050565b7f436f6d6d6f6e0000000000000000000000000000000000000000000000000000600082015250565b6000620009706006836200092d565b91506200097d8262000938565b600682019050919050565b6000620009958262000961565b9150819050919050565b7f5261726500000000000000000000000000000000000000000000000000000000600082015250565b6000620009d76004836200092d565b9150620009e4826200099f565b600482019050919050565b6000620009fc82620009c8565b9150819050919050565b7f4570696300000000000000000000000000000000000000000000000000000000600082015250565b600062000a3e6004836200092d565b915062000a4b8262000a06565b600482019050919050565b600062000a638262000a2f565b9150819050919050565b7f4d79746869630000000000000000000000000000000000000000000000000000600082015250565b600062000aa56006836200092d565b915062000ab28262000a6d565b600682019050919050565b600062000aca8262000a96565b9150819050919050565b7f4c6567656e646172790000000000000000000000000000000000000000000000600082015250565b600062000b0c6009836200092d565b915062000b198262000ad4565b600982019050919050565b600062000b318262000afd565b9150819050919050565b613c138062000b4b6000396000f3fe6080604052600436106101c25760003560e01c80636fd97681116100f75780639f1cabc611610095578063c87b56dd11610064578063c87b56dd146106c2578063d76d8950146106ff578063e985e9c51461072f578063f2fde38b1461076c576101c2565b80639f1cabc6146105f6578063a22cb46514610633578063afb0a3691461065c578063b88d4fde14610699576101c2565b80638da5cb5b116100d15780638da5cb5b146105265780639515671f1461055157806395d89b411461058e57806397ba5164146105b9576101c2565b80636fd97681146104a957806370a08231146104d2578063715018a61461050f576101c2565b806342842e0e11610164578063628f1bbf1161013e578063628f1bbf146103b55780636352211e146103f257806367d71a171461042f578063680270a41461046c576101c2565b806342842e0e1461032657806342966c681461034f5780634748dce914610378576101c2565b8063081812fc116101a0578063081812fc1461025a578063095ea7b31461029757806323b872dd146102c057806337f68552146102e9576101c2565b806301ffc9a7146101c757806306661abd1461020457806306fdde031461022f575b600080fd5b3480156101d357600080fd5b506101ee60048036038101906101e99190612ae6565b610795565b6040516101fb9190612b2e565b60405180910390f35b34801561021057600080fd5b506102196107a7565b6040516102269190612b62565b60405180910390f35b34801561023b57600080fd5b506102446107b1565b6040516102519190612c0d565b60405180910390f35b34801561026657600080fd5b50610281600480360381019061027c9190612c5b565b610843565b60405161028e9190612cc9565b60405180910390f35b3480156102a357600080fd5b506102be60048036038101906102b99190612d10565b61085f565b005b3480156102cc57600080fd5b506102e760048036038101906102e29190612d50565b610875565b005b3480156102f557600080fd5b50610310600480360381019061030b9190612ed8565b610977565b60405161031d9190612b62565b60405180910390f35b34801561033257600080fd5b5061034d60048036038101906103489190612d50565b610ae1565b005b34801561035b57600080fd5b5061037660048036038101906103719190612c5b565b610b01565b005b34801561038457600080fd5b5061039f600480360381019061039a9190612c5b565b610b18565b6040516103ac9190612c0d565b60405180910390f35b3480156103c157600080fd5b506103dc60048036038101906103d79190612f77565b610bc4565b6040516103e99190612c0d565b60405180910390f35b3480156103fe57600080fd5b5061041960048036038101906104149190612c5b565b610d73565b6040516104269190612cc9565b60405180910390f35b34801561043b57600080fd5b5061045660048036038101906104519190612f77565b610d85565b6040516104639190612b62565b60405180910390f35b34801561047857600080fd5b50610493600480360381019061048e9190612f77565b610db3565b6040516104a09190612b62565b60405180910390f35b3480156104b557600080fd5b506104d060048036038101906104cb9190612fc0565b610de1565b005b3480156104de57600080fd5b506104f960048036038101906104f49190613000565b610fa7565b6040516105069190612b62565b60405180910390f35b34801561051b57600080fd5b50610524611061565b005b34801561053257600080fd5b5061053b611075565b6040516105489190612cc9565b60405180910390f35b34801561055d57600080fd5b5061057860048036038101906105739190612fc0565b61109f565b6040516105859190612b2e565b60405180910390f35b34801561059a57600080fd5b506105a361129f565b6040516105b09190612c0d565b60405180910390f35b3480156105c557600080fd5b506105e060048036038101906105db9190612fc0565b611331565b6040516105ed9190612b2e565b60405180910390f35b34801561060257600080fd5b5061061d60048036038101906106189190612f77565b61146d565b60405161062a9190612b2e565b60405180910390f35b34801561063f57600080fd5b5061065a60048036038101906106559190613059565b611498565b005b34801561066857600080fd5b50610683600480360381019061067e9190612c5b565b6114ae565b6040516106909190612c0d565b60405180910390f35b3480156106a557600080fd5b506106c060048036038101906106bb919061313a565b61154e565b005b3480156106ce57600080fd5b506106e960048036038101906106e49190612c5b565b61156b565b6040516106f69190612c0d565b60405180910390f35b61071960048036038101906107149190612ed8565b61157d565b6040516107269190612b62565b60405180910390f35b34801561073b57600080fd5b50610756600480360381019061075191906131bd565b611731565b6040516107639190612b2e565b60405180910390f35b34801561077857600080fd5b50610793600480360381019061078e9190613000565b6117c5565b005b60006107a08261184b565b9050919050565b6000600854905090565b6060600080546107c09061322c565b80601f01602080910402602001604051908101604052809291908181526020018280546107ec9061322c565b80156108395780601f1061080e57610100808354040283529160200191610839565b820191906000526020600020905b81548152906001019060200180831161081c57829003601f168201915b5050505050905090565b600061084e826118ac565b5061085882611934565b9050919050565b610871828261086c611971565b611979565b5050565b600073ffffffffffffffffffffffffffffffffffffffff168273ffffffffffffffffffffffffffffffffffffffff16036108e75760006040517f64a0ae920000000000000000000000000000000000000000000000000000000081526004016108de9190612cc9565b60405180910390fd5b60006108fb83836108f6611971565b61198b565b90508373ffffffffffffffffffffffffffffffffffffffff168173ffffffffffffffffffffffffffffffffffffffff1614610971578382826040517f64283d7b0000000000000000000000000000000000000000000000000000000081526004016109689392919061325d565b60405180910390fd5b50505050565b6000600160098460405161098b91906132d0565b908152602001604051809103902054036109da576040517f08c379a00000000000000000000000000000000000000000000000000000000081526004016109d190613333565b60405180910390fd5b600860008154809291906109ed90613382565b91905055506001600984604051610a0491906132d0565b908152602001604051809103902081905550610a208585611ba5565b610a2a8484611c9e565b81600c60008681526020019081526020016000209081610a4a9190613576565b50600a82604051610a5b91906132d0565b90815260200160405180910390206000815480929190610a7a90613382565b91905055507f905e880dbaad9650287ca85db4d438b242e0743ad0695b07906040bedf3c66ae83600985604051610ab191906132d0565b908152602001604051809103902054604051610ace929190613648565b60405180910390a1839050949350505050565b610afc8383836040518060200160405280600081525061154e565b505050565b610b14600082610b0f611971565b61198b565b5050565b600d8181548110610b2857600080fd5b906000526020600020016000915090508054610b439061322c565b80601f0160208091040260200160405190810160405280929190818152602001828054610b6f9061322c565b8015610bbc5780601f10610b9157610100808354040283529160200191610bbc565b820191906000526020600020905b815481529060010190602001808311610b9f57829003601f168201915b505050505081565b60606000805b600d80549050811015610d5957600d8181548110610beb57610bea613678565b5b90600052602060002001604051610c02919061374a565b6040518091039020848051906020012003610c1c57600191505b818015610c395750600d80549050600182610c379190613761565b105b15610d46576000600d600183610c4f9190613761565b81548110610c6057610c5f613678565b5b906000526020600020018054610c759061322c565b80601f0160208091040260200160405190810160405280929190818152602001828054610ca19061322c565b8015610cee5780601f10610cc357610100808354040283529160200191610cee565b820191906000526020600020905b815481529060010190602001808311610cd157829003601f168201915b50505050509050600b81604051610d0591906132d0565b908152602001604051809103902054600a82604051610d2491906132d0565b9081526020016040518091039020541015610d4457809350505050610d6e565b505b8080610d5190613382565b915050610bca565b50604051806020016040528060008152509150505b919050565b6000610d7e826118ac565b9050919050565b600b818051602081018201805184825260208301602085012081835280955050505050506000915090505481565b600a818051602081018201805184825260208301602085012081835280955050505050506000915090505481565b610deb8282611331565b610e2a576040517f08c379a0000000000000000000000000000000000000000000000000000000008152600401610e21906137e1565b60405180910390fd5b6000600c60008481526020019081526020016000208054610e4a9061322c565b80601f0160208091040260200160405190810160405280929190818152602001828054610e769061322c565b8015610ec35780601f10610e9857610100808354040283529160200191610ec3565b820191906000526020600020905b815481529060010190602001808311610ea657829003601f168201915b505050505090506000610ed582610bc4565b90506000815111610f1b576040517f08c379a0000000000000000000000000000000000000000000000000000000008152600401610f129061384d565b60405180910390fd5b610f2484611cfa565b610f2d83611cfa565b7f8bc81353cf6671d259d22783e39ed930583c86f3f4cf7e981298e6a872dfb15d8484604051610f5e92919061386d565b60405180910390a17f9a7bcce90e1c6a2750370f23ff4f099b44db802f37f467a492625a4d3c8c5c2e848483604051610f9993929190613896565b60405180910390a150505050565b60008073ffffffffffffffffffffffffffffffffffffffff168273ffffffffffffffffffffffffffffffffffffffff160361101a5760006040517f89c62b640000000000000000000000000000000000000000000000000000000081526004016110119190612cc9565b60405180910390fd5b600360008373ffffffffffffffffffffffffffffffffffffffff1673ffffffffffffffffffffffffffffffffffffffff168152602001908152602001600020549050919050565b611069611d80565b6110736000611e07565b565b6000600760009054906101000a900473ffffffffffffffffffffffffffffffffffffffff16905090565b600080600c600085815260200190815260200160002080546110c09061322c565b80601f01602080910402602001604051908101604052809291908181526020018280546110ec9061322c565b80156111395780601f1061110e57610100808354040283529160200191611139565b820191906000526020600020905b81548152906001019060200180831161111c57829003601f168201915b505050505090506000600c600085815260200190815260200160002080546111609061322c565b80601f016020809104026020016040519081016040528092919081815260200182805461118c9061322c565b80156111d95780601f106111ae576101008083540402835291602001916111d9565b820191906000526020600020905b8154815290600101906020018083116111bc57829003601f168201915b505050505090506040518060400160405280600981526020017f4c6567656e646172790000000000000000000000000000000000000000000000815250805190602001208280519060200120148061127357506040518060400160405280600981526020017f4c6567656e646172790000000000000000000000000000000000000000000000815250805190602001208180519060200120145b1561128357600092505050611299565b8080519060200120828051906020012014925050505b92915050565b6060600180546112ae9061322c565b80601f01602080910402602001604051908101604052809291908181526020018280546112da9061322c565b80156113275780601f106112fc57610100808354040283529160200191611327565b820191906000526020600020905b81548152906001019060200180831161130a57829003601f168201915b5050505050905090565b6000600160096113408561156b565b60405161134d91906132d0565b908152602001604051809103902054146113668461156b565b604051602001611376919061396c565b604051602081830303815290604052906113c6576040517f08c379a00000000000000000000000000000000000000000000000000000000081526004016113bd9190612c0d565b60405180910390fd5b50600160096113d48461156b565b6040516113e191906132d0565b908152602001604051809103902054146113fa8361156b565b60405160200161140a91906139e5565b6040516020818303038152906040529061145a576040517f08c379a00000000000000000000000000000000000000000000000000000000081526004016114519190612c0d565b60405180910390fd5b50611465838361109f565b905092915050565b6000600160098360405161148191906132d0565b908152602001604051809103902054149050919050565b6114aa6114a3611971565b8383611ecd565b5050565b600c60205280600052604060002060009150905080546114cd9061322c565b80601f01602080910402602001604051908101604052809291908181526020018280546114f99061322c565b80156115465780601f1061151b57610100808354040283529160200191611546565b820191906000526020600020905b81548152906001019060200180831161152957829003601f168201915b505050505081565b611559848484610875565b6115658484848461203c565b50505050565b6060611576826121f3565b9050919050565b6000600160098460405161159191906132d0565b908152602001604051809103902054036115e0576040517f08c379a00000000000000000000000000000000000000000000000000000000081526004016115d790613333565b60405180910390fd5b66b1a2bc2ec5000034101561162a576040517f08c379a000000000000000000000000000000000000000000000000000000000815260040161162190613a5e565b60405180910390fd5b6008600081548092919061163d90613382565b9190505550600160098460405161165491906132d0565b9081526020016040518091039020819055506116708585611ba5565b61167a8484611c9e565b81600c6000868152602001908152602001600020908161169a9190613576565b50600a826040516116ab91906132d0565b908152602001604051809103902060008154809291906116ca90613382565b91905055507f905e880dbaad9650287ca85db4d438b242e0743ad0695b07906040bedf3c66ae8360098560405161170191906132d0565b90815260200160405180910390205460405161171e929190613648565b60405180910390a1839050949350505050565b6000600560008473ffffffffffffffffffffffffffffffffffffffff1673ffffffffffffffffffffffffffffffffffffffff16815260200190815260200160002060008373ffffffffffffffffffffffffffffffffffffffff1673ffffffffffffffffffffffffffffffffffffffff16815260200190815260200160002060009054906101000a900460ff16905092915050565b6117cd611d80565b600073ffffffffffffffffffffffffffffffffffffffff168173ffffffffffffffffffffffffffffffffffffffff160361183f5760006040517f1e4fbdf70000000000000000000000000000000000000000000000000000000081526004016118369190612cc9565b60405180910390fd5b61184881611e07565b50565b6000634906490660e01b7bffffffffffffffffffffffffffffffffffffffffffffffffffffffff1916827bffffffffffffffffffffffffffffffffffffffffffffffffffffffff191614806118a557506118a482612306565b5b9050919050565b6000806118b8836123e8565b9050600073ffffffffffffffffffffffffffffffffffffffff168173ffffffffffffffffffffffffffffffffffffffff160361192b57826040517f7e2732890000000000000000000000000000000000000000000000000000000081526004016119229190612b62565b60405180910390fd5b80915050919050565b60006004600083815260200190815260200160002060009054906101000a900473ffffffffffffffffffffffffffffffffffffffff169050919050565b600033905090565b6119868383836001612425565b505050565b600080611997846123e8565b9050600073ffffffffffffffffffffffffffffffffffffffff168373ffffffffffffffffffffffffffffffffffffffff16146119d9576119d88184866125ea565b5b600073ffffffffffffffffffffffffffffffffffffffff168173ffffffffffffffffffffffffffffffffffffffff1614611a6a57611a1b600085600080612425565b6001600360008373ffffffffffffffffffffffffffffffffffffffff1673ffffffffffffffffffffffffffffffffffffffff168152602001908152602001600020600082825403925050819055505b600073ffffffffffffffffffffffffffffffffffffffff168573ffffffffffffffffffffffffffffffffffffffff1614611aed576001600360008773ffffffffffffffffffffffffffffffffffffffff1673ffffffffffffffffffffffffffffffffffffffff168152602001908152602001600020600082825401925050819055505b846002600086815260200190815260200160002060006101000a81548173ffffffffffffffffffffffffffffffffffffffff021916908373ffffffffffffffffffffffffffffffffffffffff160217905550838573ffffffffffffffffffffffffffffffffffffffff168273ffffffffffffffffffffffffffffffffffffffff167fddf252ad1be2c89b69c2b068fc378daa952ba7f163c4a11628f55a4df523b3ef60405160405180910390a4809150509392505050565b600073ffffffffffffffffffffffffffffffffffffffff168273ffffffffffffffffffffffffffffffffffffffff1603611c175760006040517f64a0ae92000000000000000000000000000000000000000000000000000000008152600401611c0e9190612cc9565b60405180910390fd5b6000611c258383600061198b565b9050600073ffffffffffffffffffffffffffffffffffffffff168173ffffffffffffffffffffffffffffffffffffffff1614611c995760006040517f73c6ac6e000000000000000000000000000000000000000000000000000000008152600401611c909190612cc9565b60405180910390fd5b505050565b80600660008481526020019081526020016000209081611cbe9190613576565b507ff8e1a15aba9398e019f0b49df1a4fde98ee17ae345cb5f6b5e2c27f5033e8ce782604051611cee9190612b62565b60405180910390a15050565b6000611d09600083600061198b565b9050600073ffffffffffffffffffffffffffffffffffffffff168173ffffffffffffffffffffffffffffffffffffffff1603611d7c57816040517f7e273289000000000000000000000000000000000000000000000000000000008152600401611d739190612b62565b60405180910390fd5b5050565b611d88611971565b73ffffffffffffffffffffffffffffffffffffffff16611da6611075565b73ffffffffffffffffffffffffffffffffffffffff1614611e0557611dc9611971565b6040517f118cdaa7000000000000000000000000000000000000000000000000000000008152600401611dfc9190612cc9565b60405180910390fd5b565b6000600760009054906101000a900473ffffffffffffffffffffffffffffffffffffffff16905081600760006101000a81548173ffffffffffffffffffffffffffffffffffffffff021916908373ffffffffffffffffffffffffffffffffffffffff1602179055508173ffffffffffffffffffffffffffffffffffffffff168173ffffffffffffffffffffffffffffffffffffffff167f8be0079c531659141344cd1fd0a4f28419497f9722a3daafe3b4186f6b6457e060405160405180910390a35050565b600073ffffffffffffffffffffffffffffffffffffffff168273ffffffffffffffffffffffffffffffffffffffff1603611f3e57816040517f5b08ba18000000000000000000000000000000000000000000000000000000008152600401611f359190612cc9565b60405180910390fd5b80600560008573ffffffffffffffffffffffffffffffffffffffff1673ffffffffffffffffffffffffffffffffffffffff16815260200190815260200160002060008473ffffffffffffffffffffffffffffffffffffffff1673ffffffffffffffffffffffffffffffffffffffff16815260200190815260200160002060006101000a81548160ff0219169083151502179055508173ffffffffffffffffffffffffffffffffffffffff168373ffffffffffffffffffffffffffffffffffffffff167f17307eab39ab6107e8899845ad3d59bd9653f200f220920489ca2b5937696c318360405161202f9190612b2e565b60405180910390a3505050565b60008373ffffffffffffffffffffffffffffffffffffffff163b11156121ed578273ffffffffffffffffffffffffffffffffffffffff1663150b7a02612080611971565b8685856040518563ffffffff1660e01b81526004016120a29493929190613ad3565b6020604051808303816000875af19250505080156120de57506040513d601f19601f820116820180604052508101906120db9190613b34565b60015b612162573d806000811461210e576040519150601f19603f3d011682016040523d82523d6000602084013e612113565b606091505b50600081510361215a57836040517f64a0ae920000000000000000000000000000000000000000000000000000000081526004016121519190612cc9565b60405180910390fd5b805181602001fd5b63150b7a0260e01b7bffffffffffffffffffffffffffffffffffffffffffffffffffffffff1916817bffffffffffffffffffffffffffffffffffffffffffffffffffffffff1916146121eb57836040517f64a0ae920000000000000000000000000000000000000000000000000000000081526004016121e29190612cc9565b60405180910390fd5b505b50505050565b60606121fe826118ac565b50600060066000848152602001908152602001600020805461221f9061322c565b80601f016020809104026020016040519081016040528092919081815260200182805461224b9061322c565b80156122985780601f1061226d57610100808354040283529160200191612298565b820191906000526020600020905b81548152906001019060200180831161227b57829003601f168201915b5050505050905060006122a96126ae565b905060008151036122be578192505050612301565b6000825111156122f35780826040516020016122db929190613b61565b60405160208183030381529060405292505050612301565b6122fc846126c5565b925050505b919050565b60007f80ac58cd000000000000000000000000000000000000000000000000000000007bffffffffffffffffffffffffffffffffffffffffffffffffffffffff1916827bffffffffffffffffffffffffffffffffffffffffffffffffffffffff191614806123d157507f5b5e139f000000000000000000000000000000000000000000000000000000007bffffffffffffffffffffffffffffffffffffffffffffffffffffffff1916827bffffffffffffffffffffffffffffffffffffffffffffffffffffffff1916145b806123e157506123e08261272e565b5b9050919050565b60006002600083815260200190815260200160002060009054906101000a900473ffffffffffffffffffffffffffffffffffffffff169050919050565b808061245e5750600073ffffffffffffffffffffffffffffffffffffffff168273ffffffffffffffffffffffffffffffffffffffff1614155b1561259257600061246e846118ac565b9050600073ffffffffffffffffffffffffffffffffffffffff168373ffffffffffffffffffffffffffffffffffffffff16141580156124d957508273ffffffffffffffffffffffffffffffffffffffff168173ffffffffffffffffffffffffffffffffffffffff1614155b80156124ec57506124ea8184611731565b155b1561252e57826040517fa9fbf51f0000000000000000000000000000000000000000000000000000000081526004016125259190612cc9565b60405180910390fd5b811561259057838573ffffffffffffffffffffffffffffffffffffffff168273ffffffffffffffffffffffffffffffffffffffff167f8c5be1e5ebec7d5bd14f71427d1e84f3dd0314c0f7b2291e5b200ac8c7c3b92560405160405180910390a45b505b836004600085815260200190815260200160002060006101000a81548173ffffffffffffffffffffffffffffffffffffffff021916908373ffffffffffffffffffffffffffffffffffffffff16021790555050505050565b6125f5838383612798565b6126a957600073ffffffffffffffffffffffffffffffffffffffff168373ffffffffffffffffffffffffffffffffffffffff160361266a57806040517f7e2732890000000000000000000000000000000000000000000000000000000081526004016126619190612b62565b60405180910390fd5b81816040517f177e802f0000000000000000000000000000000000000000000000000000000081526004016126a0929190613b85565b60405180910390fd5b505050565b606060405180602001604052806000815250905090565b60606126d0826118ac565b5060006126db6126ae565b905060008151116126fb5760405180602001604052806000815250612726565b8061270584612859565b604051602001612716929190613b61565b6040516020818303038152906040525b915050919050565b60007f01ffc9a7000000000000000000000000000000000000000000000000000000007bffffffffffffffffffffffffffffffffffffffffffffffffffffffff1916827bffffffffffffffffffffffffffffffffffffffffffffffffffffffff1916149050919050565b60008073ffffffffffffffffffffffffffffffffffffffff168373ffffffffffffffffffffffffffffffffffffffff161415801561285057508273ffffffffffffffffffffffffffffffffffffffff168473ffffffffffffffffffffffffffffffffffffffff16148061281157506128108484611731565b5b8061284f57508273ffffffffffffffffffffffffffffffffffffffff1661283783611934565b73ffffffffffffffffffffffffffffffffffffffff16145b5b90509392505050565b60606000600161286884612927565b01905060008167ffffffffffffffff81111561288757612886612dad565b5b6040519080825280601f01601f1916602001820160405280156128b95781602001600182028036833780820191505090505b509050600082602001820190505b60011561291c578080600190039150507f3031323334353637383961626364656600000000000000000000000000000000600a86061a8153600a85816129105761290f613bae565b5b049450600085036128c7575b819350505050919050565b600080600090507a184f03e93ff9f4daa797ed6e38ed64bf6a1f0100000000000000008310612985577a184f03e93ff9f4daa797ed6e38ed64bf6a1f010000000000000000838161297b5761297a613bae565b5b0492506040810190505b6d04ee2d6d415b85acef810000000083106129c2576d04ee2d6d415b85acef810000000083816129b8576129b7613bae565b5b0492506020810190505b662386f26fc1000083106129f157662386f26fc1000083816129e7576129e6613bae565b5b0492506010810190505b6305f5e1008310612a1a576305f5e1008381612a1057612a0f613bae565b5b0492506008810190505b6127108310612a3f576127108381612a3557612a34613bae565b5b0492506004810190505b60648310612a625760648381612a5857612a57613bae565b5b0492506002810190505b600a8310612a71576001810190505b80915050919050565b6000604051905090565b600080fd5b600080fd5b60007fffffffff0000000000000000000000000000000000000000000000000000000082169050919050565b612ac381612a8e565b8114612ace57600080fd5b50565b600081359050612ae081612aba565b92915050565b600060208284031215612afc57612afb612a84565b5b6000612b0a84828501612ad1565b91505092915050565b60008115159050919050565b612b2881612b13565b82525050565b6000602082019050612b436000830184612b1f565b92915050565b6000819050919050565b612b5c81612b49565b82525050565b6000602082019050612b776000830184612b53565b92915050565b600081519050919050565b600082825260208201905092915050565b60005b83811015612bb7578082015181840152602081019050612b9c565b60008484015250505050565b6000601f19601f8301169050919050565b6000612bdf82612b7d565b612be98185612b88565b9350612bf9818560208601612b99565b612c0281612bc3565b840191505092915050565b60006020820190508181036000830152612c278184612bd4565b905092915050565b612c3881612b49565b8114612c4357600080fd5b50565b600081359050612c5581612c2f565b92915050565b600060208284031215612c7157612c70612a84565b5b6000612c7f84828501612c46565b91505092915050565b600073ffffffffffffffffffffffffffffffffffffffff82169050919050565b6000612cb382612c88565b9050919050565b612cc381612ca8565b82525050565b6000602082019050612cde6000830184612cba565b92915050565b612ced81612ca8565b8114612cf857600080fd5b50565b600081359050612d0a81612ce4565b92915050565b60008060408385031215612d2757612d26612a84565b5b6000612d3585828601612cfb565b9250506020612d4685828601612c46565b9150509250929050565b600080600060608486031215612d6957612d68612a84565b5b6000612d7786828701612cfb565b9350506020612d8886828701612cfb565b9250506040612d9986828701612c46565b9150509250925092565b600080fd5b600080fd5b7f4e487b7100000000000000000000000000000000000000000000000000000000600052604160045260246000fd5b612de582612bc3565b810181811067ffffffffffffffff82111715612e0457612e03612dad565b5b80604052505050565b6000612e17612a7a565b9050612e238282612ddc565b919050565b600067ffffffffffffffff821115612e4357612e42612dad565b5b612e4c82612bc3565b9050602081019050919050565b82818337600083830152505050565b6000612e7b612e7684612e28565b612e0d565b905082815260208101848484011115612e9757612e96612da8565b5b612ea2848285612e59565b509392505050565b600082601f830112612ebf57612ebe612da3565b5b8135612ecf848260208601612e68565b91505092915050565b60008060008060808587031215612ef257612ef1612a84565b5b6000612f0087828801612cfb565b9450506020612f1187828801612c46565b935050604085013567ffffffffffffffff811115612f3257612f31612a89565b5b612f3e87828801612eaa565b925050606085013567ffffffffffffffff811115612f5f57612f5e612a89565b5b612f6b87828801612eaa565b91505092959194509250565b600060208284031215612f8d57612f8c612a84565b5b600082013567ffffffffffffffff811115612fab57612faa612a89565b5b612fb784828501612eaa565b91505092915050565b60008060408385031215612fd757612fd6612a84565b5b6000612fe585828601612c46565b9250506020612ff685828601612c46565b9150509250929050565b60006020828403121561301657613015612a84565b5b600061302484828501612cfb565b91505092915050565b61303681612b13565b811461304157600080fd5b50565b6000813590506130538161302d565b92915050565b600080604083850312156130705761306f612a84565b5b600061307e85828601612cfb565b925050602061308f85828601613044565b9150509250929050565b600067ffffffffffffffff8211156130b4576130b3612dad565b5b6130bd82612bc3565b9050602081019050919050565b60006130dd6130d884613099565b612e0d565b9050828152602081018484840111156130f9576130f8612da8565b5b613104848285612e59565b509392505050565b600082601f83011261312157613120612da3565b5b81356131318482602086016130ca565b91505092915050565b6000806000806080858703121561315457613153612a84565b5b600061316287828801612cfb565b945050602061317387828801612cfb565b935050604061318487828801612c46565b925050606085013567ffffffffffffffff8111156131a5576131a4612a89565b5b6131b18782880161310c565b91505092959194509250565b600080604083850312156131d4576131d3612a84565b5b60006131e285828601612cfb565b92505060206131f385828601612cfb565b9150509250929050565b7f4e487b7100000000000000000000000000000000000000000000000000000000600052602260045260246000fd5b6000600282049050600182168061324457607f821691505b602082108103613257576132566131fd565b5b50919050565b60006060820190506132726000830186612cba565b61327f6020830185612b53565b61328c6040830184612cba565b949350505050565b600081905092915050565b60006132aa82612b7d565b6132b48185613294565b93506132c4818560208601612b99565b80840191505092915050565b60006132dc828461329f565b915081905092915050565b7f4e465420616c7265616479206d696e7465642100000000000000000000000000600082015250565b600061331d601383612b88565b9150613328826132e7565b602082019050919050565b6000602082019050818103600083015261334c81613310565b9050919050565b7f4e487b7100000000000000000000000000000000000000000000000000000000600052601160045260246000fd5b600061338d82612b49565b91507fffffffffffffffffffffffffffffffffffffffffffffffffffffffffffffffff82036133bf576133be613353565b5b600182019050919050565b60008190508160005260206000209050919050565b60006020601f8301049050919050565b600082821b905092915050565b60006008830261342c7fffffffffffffffffffffffffffffffffffffffffffffffffffffffffffffffff826133ef565b61343686836133ef565b95508019841693508086168417925050509392505050565b6000819050919050565b600061347361346e61346984612b49565b61344e565b612b49565b9050919050565b6000819050919050565b61348d83613458565b6134a16134998261347a565b8484546133fc565b825550505050565b600090565b6134b66134a9565b6134c1818484613484565b505050565b5b818110156134e5576134da6000826134ae565b6001810190506134c7565b5050565b601f82111561352a576134fb816133ca565b613504846133df565b81016020851015613513578190505b61352761351f856133df565b8301826134c6565b50505b505050565b600082821c905092915050565b600061354d6000198460080261352f565b1980831691505092915050565b6000613566838361353c565b9150826002028217905092915050565b61357f82612b7d565b67ffffffffffffffff81111561359857613597612dad565b5b6135a2825461322c565b6135ad8282856134e9565b600060209050601f8311600181146135e057600084156135ce578287015190505b6135d8858261355a565b865550613640565b601f1984166135ee866133ca565b60005b82811015613616578489015182556001820191506020850194506020810190506135f1565b86831015613633578489015161362f601f89168261353c565b8355505b6001600288020188555050505b505050505050565b600060408201905081810360008301526136628185612bd4565b90506136716020830184612b53565b9392505050565b7f4e487b7100000000000000000000000000000000000000000000000000000000600052603260045260246000fd5b600081905092915050565b60008190508160005260206000209050919050565b600081546136d48161322c565b6136de81866136a7565b945060018216600081146136f9576001811461370e57613741565b60ff1983168652811515820286019350613741565b613717856136b2565b60005b838110156137395781548189015260018201915060208101905061371a565b838801955050505b50505092915050565b600061375682846136c7565b915081905092915050565b600061376c82612b49565b915061377783612b49565b925082820190508082111561378f5761378e613353565b5b92915050565b7f546f6b656e732063616e6e6f74206265206d6572676564000000000000000000600082015250565b60006137cb601783612b88565b91506137d682613795565b602082019050919050565b600060208201905081810360008301526137fa816137be565b9050919050565b7f4e6f206869676865722072617269747920617661696c61626c65000000000000600082015250565b6000613837601a83612b88565b915061384282613801565b602082019050919050565b600060208201905081810360008301526138668161382a565b9050919050565b60006040820190506138826000830185612b53565b61388f6020830184612b53565b9392505050565b60006060820190506138ab6000830186612b53565b6138b86020830185612b53565b81810360408301526138ca8184612bd4565b9050949350505050565b7f546f6b656e203120000000000000000000000000000000000000000000000000600082015250565b600061390a600883613294565b9150613915826138d4565b600882019050919050565b7f20646f6573206e6f742065786973740000000000000000000000000000000000600082015250565b6000613956600f83613294565b915061396182613920565b600f82019050919050565b6000613977826138fd565b9150613983828461329f565b915061398e82613949565b915081905092915050565b7f546f6b656e203220000000000000000000000000000000000000000000000000600082015250565b60006139cf600883613294565b91506139da82613999565b600882019050919050565b60006139f0826139c2565b91506139fc828461329f565b9150613a0782613949565b915081905092915050565b7f496e73756666696369656e7420616d6f756e7421000000000000000000000000600082015250565b6000613a48601483612b88565b9150613a5382613a12565b602082019050919050565b60006020820190508181036000830152613a7781613a3b565b9050919050565b600081519050919050565b600082825260208201905092915050565b6000613aa582613a7e565b613aaf8185613a89565b9350613abf818560208601612b99565b613ac881612bc3565b840191505092915050565b6000608082019050613ae86000830187612cba565b613af56020830186612cba565b613b026040830185612b53565b8181036060830152613b148184613a9a565b905095945050505050565b600081519050613b2e81612aba565b92915050565b600060208284031215613b4a57613b49612a84565b5b6000613b5884828501613b1f565b91505092915050565b6000613b6d828561329f565b9150613b79828461329f565b91508190509392505050565b6000604082019050613b9a6000830185612cba565b613ba76020830184612b53565b9392505050565b7f4e487b7100000000000000000000000000000000000000000000000000000000600052601260045260246000fdfea26469706673582212201392580081782c3f4247ae61697bf7245ecca7ae86f9ca84a560cd455b898c7b64736f6c63430008140033",
  "linkReferences": {},
  "deployedLinkReferences": {}
}