{
  "_format": "hh-sol-artifact-1",
  "contractName": "Warriors",
  "sourceName": "contracts/WarriorsNFT.sol",
  "abi": [
    {
      "inputs": [
        {
          "internalType": "address",
          "name": "initialOwner",
          "type": "address"
        }
      ],
      "stateMutability": "nonpayable",
      "type": "constructor"
    },
    {
      "inputs": [
        {
          "internalType": "address",
          "name": "sender",
          "type": "address"
        },
        {
          "internalType": "uint256",
          "name": "tokenId",
          "type": "uint256"
        },
        {
          "internalType": "address",
          "name": "owner",
          "type": "address"
        }
      ],
      "name": "ERC721IncorrectOwner",
      "type": "error"
    },
    {
      "inputs": [
        {
          "internalType": "address",
          "name": "operator",
          "type": "address"
        },
        {
          "internalType": "uint256",
          "name": "tokenId",
          "type": "uint256"
        }
      ],
      "name": "ERC721InsufficientApproval",
      "type": "error"
    },
    {
      "inputs": [
        {
          "internalType": "address",
          "name": "approver",
          "type": "address"
        }
      ],
      "name": "ERC721InvalidApprover",
      "type": "error"
    },
    {
      "inputs": [
        {
          "internalType": "address",
          "name": "operator",
          "type": "address"
        }
      ],
      "name": "ERC721InvalidOperator",
      "type": "error"
    },
    {
      "inputs": [
        {
          "internalType": "address",
          "name": "owner",
          "type": "address"
        }
      ],
      "name": "ERC721InvalidOwner",
      "type": "error"
    },
    {
      "inputs": [
        {
          "internalType": "address",
          "name": "receiver",
          "type": "address"
        }
      ],
      "name": "ERC721InvalidReceiver",
      "type": "error"
    },
    {
      "inputs": [
        {
          "internalType": "address",
          "name": "sender",
          "type": "address"
        }
      ],
      "name": "ERC721InvalidSender",
      "type": "error"
    },
    {
      "inputs": [
        {
          "internalType": "uint256",
          "name": "tokenId",
          "type": "uint256"
        }
      ],
      "name": "ERC721NonexistentToken",
      "type": "error"
    },
    {
      "inputs": [
        {
          "internalType": "address",
          "name": "owner",
          "type": "address"
        }
      ],
      "name": "OwnableInvalidOwner",
      "type": "error"
    },
    {
      "inputs": [
        {
          "internalType": "address",
          "name": "account",
          "type": "address"
        }
      ],
      "name": "OwnableUnauthorizedAccount",
      "type": "error"
    },
    {
      "anonymous": false,
      "inputs": [
        {
          "indexed": true,
          "internalType": "address",
          "name": "owner",
          "type": "address"
        },
        {
          "indexed": true,
          "internalType": "address",
          "name": "approved",
          "type": "address"
        },
        {
          "indexed": true,
          "internalType": "uint256",
          "name": "tokenId",
          "type": "uint256"
        }
      ],
      "name": "Approval",
      "type": "event"
    },
    {
      "anonymous": false,
      "inputs": [
        {
          "indexed": true,
          "internalType": "address",
          "name": "owner",
          "type": "address"
        },
        {
          "indexed": true,
          "internalType": "address",
          "name": "operator",
          "type": "address"
        },
        {
          "indexed": false,
          "internalType": "bool",
          "name": "approved",
          "type": "bool"
        }
      ],
      "name": "ApprovalForAll",
      "type": "event"
    },
    {
      "anonymous": false,
      "inputs": [
        {
          "indexed": false,
          "internalType": "uint256",
          "name": "_fromTokenId",
          "type": "uint256"
        },
        {
          "indexed": false,
          "internalType": "uint256",
          "name": "_toTokenId",
          "type": "uint256"
        }
      ],
      "name": "BatchMetadataUpdate",
      "type": "event"
    },
    {
      "anonymous": false,
      "inputs": [
        {
          "indexed": false,
          "internalType": "uint256",
          "name": "_tokenId",
          "type": "uint256"
        }
      ],
      "name": "MetadataUpdate",
      "type": "event"
    },
    {
      "anonymous": false,
      "inputs": [
        {
          "indexed": true,
          "internalType": "address",
          "name": "previousOwner",
          "type": "address"
        },
        {
          "indexed": true,
          "internalType": "address",
          "name": "newOwner",
          "type": "address"
        }
      ],
      "name": "OwnershipTransferred",
      "type": "event"
    },
    {
      "anonymous": false,
      "inputs": [
        {
          "indexed": true,
          "internalType": "address",
          "name": "from",
          "type": "address"
        },
        {
          "indexed": true,
          "internalType": "address",
          "name": "to",
          "type": "address"
        },
        {
          "indexed": true,
          "internalType": "uint256",
          "name": "tokenId",
          "type": "uint256"
        }
      ],
      "name": "Transfer",
      "type": "event"
    },
    {
      "inputs": [
        {
          "internalType": "address",
          "name": "to",
          "type": "address"
        },
        {
          "internalType": "uint256",
          "name": "tokenId",
          "type": "uint256"
        }
      ],
      "name": "approve",
      "outputs": [],
      "stateMutability": "nonpayable",
      "type": "function"
    },
    {
      "inputs": [
        {
          "internalType": "address",
          "name": "owner",
          "type": "address"
        }
      ],
      "name": "balanceOf",
      "outputs": [
        {
          "internalType": "uint256",
          "name": "",
          "type": "uint256"
        }
      ],
      "stateMutability": "view",
      "type": "function"
    },
    {
      "inputs": [
        {
          "internalType": "uint256",
          "name": "tokenId",
          "type": "uint256"
        }
      ],
      "name": "burn",
      "outputs": [],
      "stateMutability": "nonpayable",
      "type": "function"
    },
    {
      "inputs": [],
      "name": "count",
      "outputs": [
        {
          "internalType": "uint256",
          "name": "",
          "type": "uint256"
        }
      ],
      "stateMutability": "view",
      "type": "function"
    },
    {
      "inputs": [
        {
          "internalType": "uint256",
          "name": "tokenId",
          "type": "uint256"
        }
      ],
      "name": "getApproved",
      "outputs": [
        {
          "internalType": "address",
          "name": "",
          "type": "address"
        }
      ],
      "stateMutability": "view",
      "type": "function"
    },
    {
      "inputs": [
        {
          "internalType": "address",
          "name": "owner",
          "type": "address"
        },
        {
          "internalType": "address",
          "name": "operator",
          "type": "address"
        }
      ],
      "name": "isApprovedForAll",
      "outputs": [
        {
          "internalType": "bool",
          "name": "",
          "type": "bool"
        }
      ],
      "stateMutability": "view",
      "type": "function"
    },
    {
      "inputs": [
        {
          "internalType": "string",
          "name": "uri",
          "type": "string"
        }
      ],
      "name": "isContentOwned",
      "outputs": [
        {
          "internalType": "bool",
          "name": "",
          "type": "bool"
        }
      ],
      "stateMutability": "view",
      "type": "function"
    },
    {
      "inputs": [],
      "name": "name",
      "outputs": [
        {
          "internalType": "string",
          "name": "",
          "type": "string"
        }
      ],
      "stateMutability": "view",
      "type": "function"
    },
    {
      "inputs": [],
      "name": "owner",
      "outputs": [
        {
          "internalType": "address",
          "name": "",
          "type": "address"
        }
      ],
      "stateMutability": "view",
      "type": "function"
    },
    {
      "inputs": [
        {
          "internalType": "uint256",
          "name": "tokenId",
          "type": "uint256"
        }
      ],
      "name": "ownerOf",
      "outputs": [
        {
          "internalType": "address",
          "name": "",
          "type": "address"
        }
      ],
      "stateMutability": "view",
      "type": "function"
    },
    {
      "inputs": [
        {
          "internalType": "address",
          "name": "recipient",
          "type": "address"
        },
        {
          "internalType": "string",
          "name": "metadataURI",
          "type": "string"
        }
      ],
      "name": "payToMint",
      "outputs": [
        {
          "internalType": "uint256",
          "name": "",
          "type": "uint256"
        }
      ],
      "stateMutability": "payable",
      "type": "function"
    },
    {
      "inputs": [],
      "name": "renounceOwnership",
      "outputs": [],
      "stateMutability": "nonpayable",
      "type": "function"
    },
    {
      "inputs": [
        {
          "internalType": "address",
          "name": "to",
          "type": "address"
        },
        {
          "internalType": "string",
          "name": "uri",
          "type": "string"
        }
      ],
      "name": "safeMint",
      "outputs": [],
      "stateMutability": "nonpayable",
      "type": "function"
    },
    {
      "inputs": [
        {
          "internalType": "address",
          "name": "from",
          "type": "address"
        },
        {
          "internalType": "address",
          "name": "to",
          "type": "address"
        },
        {
          "internalType": "uint256",
          "name": "tokenId",
          "type": "uint256"
        }
      ],
      "name": "safeTransferFrom",
      "outputs": [],
      "stateMutability": "nonpayable",
      "type": "function"
    },
    {
      "inputs": [
        {
          "internalType": "address",
          "name": "from",
          "type": "address"
        },
        {
          "internalType": "address",
          "name": "to",
          "type": "address"
        },
        {
          "internalType": "uint256",
          "name": "tokenId",
          "type": "uint256"
        },
        {
          "internalType": "bytes",
          "name": "data",
          "type": "bytes"
        }
      ],
      "name": "safeTransferFrom",
      "outputs": [],
      "stateMutability": "nonpayable",
      "type": "function"
    },
    {
      "inputs": [
        {
          "internalType": "address",
          "name": "operator",
          "type": "address"
        },
        {
          "internalType": "bool",
          "name": "approved",
          "type": "bool"
        }
      ],
      "name": "setApprovalForAll",
      "outputs": [],
      "stateMutability": "nonpayable",
      "type": "function"
    },
    {
      "inputs": [
        {
          "internalType": "bytes4",
          "name": "interfaceId",
          "type": "bytes4"
        }
      ],
      "name": "supportsInterface",
      "outputs": [
        {
          "internalType": "bool",
          "name": "",
          "type": "bool"
        }
      ],
      "stateMutability": "view",
      "type": "function"
    },
    {
      "inputs": [],
      "name": "symbol",
      "outputs": [
        {
          "internalType": "string",
          "name": "",
          "type": "string"
        }
      ],
      "stateMutability": "view",
      "type": "function"
    },
    {
      "inputs": [
        {
          "internalType": "uint256",
          "name": "tokenId",
          "type": "uint256"
        }
      ],
      "name": "tokenURI",
      "outputs": [
        {
          "internalType": "string",
          "name": "",
          "type": "string"
        }
      ],
      "stateMutability": "view",
      "type": "function"
    },
    {
      "inputs": [
        {
          "internalType": "address",
          "name": "from",
          "type": "address"
        },
        {
          "internalType": "address",
          "name": "to",
          "type": "address"
        },
        {
          "internalType": "uint256",
          "name": "tokenId",
          "type": "uint256"
        }
      ],
      "name": "transferFrom",
      "outputs": [],
      "stateMutability": "nonpayable",
      "type": "function"
    },
    {
      "inputs": [
        {
          "internalType": "address",
          "name": "newOwner",
          "type": "address"
        }
      ],
      "name": "transferOwnership",
      "outputs": [],
      "stateMutability": "nonpayable",
      "type": "function"
    }
  ],
  "bytecode": "0x60806040523480156200001157600080fd5b506040516200314838038062003148833981810160405281019062000037919062000288565b806040518060400160405280600881526020017f57617272696f72730000000000000000000000000000000000000000000000008152506040518060400160405280600381526020017f57415200000000000000000000000000000000000000000000000000000000008152508160009081620000b5919062000534565b508060019081620000c7919062000534565b505050600073ffffffffffffffffffffffffffffffffffffffff168173ffffffffffffffffffffffffffffffffffffffff16036200013f5760006040517f1e4fbdf70000000000000000000000000000000000000000000000000000000081526004016200013691906200062c565b60405180910390fd5b62000150816200015860201b60201c565b505062000649565b6000600760009054906101000a900473ffffffffffffffffffffffffffffffffffffffff16905081600760006101000a81548173ffffffffffffffffffffffffffffffffffffffff021916908373ffffffffffffffffffffffffffffffffffffffff1602179055508173ffffffffffffffffffffffffffffffffffffffff168173ffffffffffffffffffffffffffffffffffffffff167f8be0079c531659141344cd1fd0a4f28419497f9722a3daafe3b4186f6b6457e060405160405180910390a35050565b600080fd5b600073ffffffffffffffffffffffffffffffffffffffff82169050919050565b6000620002508262000223565b9050919050565b620002628162000243565b81146200026e57600080fd5b50565b600081519050620002828162000257565b92915050565b600060208284031215620002a157620002a06200021e565b5b6000620002b18482850162000271565b91505092915050565b600081519050919050565b7f4e487b7100000000000000000000000000000000000000000000000000000000600052604160045260246000fd5b7f4e487b7100000000000000000000000000000000000000000000000000000000600052602260045260246000fd5b600060028204905060018216806200033c57607f821691505b602082108103620003525762000351620002f4565b5b50919050565b60008190508160005260206000209050919050565b60006020601f8301049050919050565b600082821b905092915050565b600060088302620003bc7fffffffffffffffffffffffffffffffffffffffffffffffffffffffffffffffff826200037d565b620003c886836200037d565b95508019841693508086168417925050509392505050565b6000819050919050565b6000819050919050565b6000620004156200040f6200040984620003e0565b620003ea565b620003e0565b9050919050565b6000819050919050565b6200043183620003f4565b6200044962000440826200041c565b8484546200038a565b825550505050565b600090565b6200046062000451565b6200046d81848462000426565b505050565b5b8181101562000495576200048960008262000456565b60018101905062000473565b5050565b601f821115620004e457620004ae8162000358565b620004b9846200036d565b81016020851015620004c9578190505b620004e1620004d8856200036d565b83018262000472565b50505b505050565b600082821c905092915050565b60006200050960001984600802620004e9565b1980831691505092915050565b6000620005248383620004f6565b9150826002028217905092915050565b6200053f82620002ba565b67ffffffffffffffff8111156200055b576200055a620002c5565b5b62000567825462000323565b6200057482828562000499565b600060209050601f831160018114620005ac576000841562000597578287015190505b620005a3858262000516565b86555062000613565b601f198416620005bc8662000358565b60005b82811015620005e657848901518255600182019150602085019450602081019050620005bf565b8683101562000606578489015162000602601f891682620004f6565b8355505b6001600288020188555050505b505050505050565b620006268162000243565b82525050565b60006020820190506200064360008301846200061b565b92915050565b612aef80620006596000396000f3fe60806040526004361061012a5760003560e01c806370a08231116100ab578063a22cb4651161006f578063a22cb465146103f7578063b88d4fde14610420578063c87b56dd14610449578063d204c45e14610486578063e985e9c5146104af578063f2fde38b146104ec5761012a565b806370a0823114610310578063715018a61461034d5780638da5cb5b1461036457806395d89b411461038f5780639f1cabc6146103ba5761012a565b806323b872dd116100f257806323b872dd1461022857806342842e0e1461025157806342966c681461027a578063615fd9e2146102a35780636352211e146102d35761012a565b806301ffc9a71461012f57806306661abd1461016c57806306fdde0314610197578063081812fc146101c2578063095ea7b3146101ff575b600080fd5b34801561013b57600080fd5b5061015660048036038101906101519190611e0f565b610515565b6040516101639190611e57565b60405180910390f35b34801561017857600080fd5b50610181610527565b60405161018e9190611e8b565b60405180910390f35b3480156101a357600080fd5b506101ac610531565b6040516101b99190611f36565b60405180910390f35b3480156101ce57600080fd5b506101e960048036038101906101e49190611f84565b6105c3565b6040516101f69190611ff2565b60405180910390f35b34801561020b57600080fd5b5061022660048036038101906102219190612039565b6105df565b005b34801561023457600080fd5b5061024f600480360381019061024a9190612079565b6105f5565b005b34801561025d57600080fd5b5061027860048036038101906102739190612079565b6106f7565b005b34801561028657600080fd5b506102a1600480360381019061029c9190611f84565b610717565b005b6102bd60048036038101906102b89190612201565b61072e565b6040516102ca9190611e8b565b60405180910390f35b3480156102df57600080fd5b506102fa60048036038101906102f59190611f84565b610838565b6040516103079190611ff2565b60405180910390f35b34801561031c57600080fd5b506103376004803603810190610332919061225d565b61084a565b6040516103449190611e8b565b60405180910390f35b34801561035957600080fd5b50610362610904565b005b34801561037057600080fd5b50610379610918565b6040516103869190611ff2565b60405180910390f35b34801561039b57600080fd5b506103a4610942565b6040516103b19190611f36565b60405180910390f35b3480156103c657600080fd5b506103e160048036038101906103dc919061228a565b6109d4565b6040516103ee9190611e57565b60405180910390f35b34801561040357600080fd5b5061041e600480360381019061041991906122ff565b6109ff565b005b34801561042c57600080fd5b50610447600480360381019061044291906123e0565b610a15565b005b34801561045557600080fd5b50610470600480360381019061046b9190611f84565b610a32565b60405161047d9190611f36565b60405180910390f35b34801561049257600080fd5b506104ad60048036038101906104a89190612201565b610a44565b005b3480156104bb57600080fd5b506104d660048036038101906104d19190612463565b610a80565b6040516104e39190611e57565b60405180910390f35b3480156104f857600080fd5b50610513600480360381019061050e919061225d565b610b14565b005b600061052082610b9a565b9050919050565b6000600854905090565b606060008054610540906124d2565b80601f016020809104026020016040519081016040528092919081815260200182805461056c906124d2565b80156105b95780601f1061058e576101008083540402835291602001916105b9565b820191906000526020600020905b81548152906001019060200180831161059c57829003601f168201915b5050505050905090565b60006105ce82610bfb565b506105d882610c83565b9050919050565b6105f182826105ec610cc0565b610cc8565b5050565b600073ffffffffffffffffffffffffffffffffffffffff168273ffffffffffffffffffffffffffffffffffffffff16036106675760006040517f64a0ae9200000000000000000000000000000000000000000000000000000000815260040161065e9190611ff2565b60405180910390fd5b600061067b8383610676610cc0565b610cda565b90508373ffffffffffffffffffffffffffffffffffffffff168173ffffffffffffffffffffffffffffffffffffffff16146106f1578382826040517f64283d7b0000000000000000000000000000000000000000000000000000000081526004016106e893929190612503565b60405180910390fd5b50505050565b61071283838360405180602001604052806000815250610a15565b505050565b61072a600082610725610cc0565b610cda565b5050565b600060016009836040516107429190612576565b90815260200160405180910390205403610791576040517f08c379a0000000000000000000000000000000000000000000000000000000008152600401610788906125d9565b60405180910390fd5b66b1a2bc2ec500003410156107db576040517f08c379a00000000000000000000000000000000000000000000000000000000081526004016107d290612645565b60405180910390fd5b6000600860008154809291906107f090612694565b91905055905060016009846040516108089190612576565b9081526020016040518091039020819055506108248482610ef4565b61082e8184610fed565b8091505092915050565b600061084382610bfb565b9050919050565b60008073ffffffffffffffffffffffffffffffffffffffff168273ffffffffffffffffffffffffffffffffffffffff16036108bd5760006040517f89c62b640000000000000000000000000000000000000000000000000000000081526004016108b49190611ff2565b60405180910390fd5b600360008373ffffffffffffffffffffffffffffffffffffffff1673ffffffffffffffffffffffffffffffffffffffff168152602001908152602001600020549050919050565b61090c611049565b61091660006110d0565b565b6000600760009054906101000a900473ffffffffffffffffffffffffffffffffffffffff16905090565b606060018054610951906124d2565b80601f016020809104026020016040519081016040528092919081815260200182805461097d906124d2565b80156109ca5780601f1061099f576101008083540402835291602001916109ca565b820191906000526020600020905b8154815290600101906020018083116109ad57829003601f168201915b5050505050905090565b600060016009836040516109e89190612576565b908152602001604051809103902054149050919050565b610a11610a0a610cc0565b8383611196565b5050565b610a208484846105f5565b610a2c84848484611305565b50505050565b6060610a3d826114bc565b9050919050565b610a4c611049565b600060086000815480929190610a6190612694565b919050559050610a7183826115cf565b610a7b8183610fed565b505050565b6000600560008473ffffffffffffffffffffffffffffffffffffffff1673ffffffffffffffffffffffffffffffffffffffff16815260200190815260200160002060008373ffffffffffffffffffffffffffffffffffffffff1673ffffffffffffffffffffffffffffffffffffffff16815260200190815260200160002060009054906101000a900460ff16905092915050565b610b1c611049565b600073ffffffffffffffffffffffffffffffffffffffff168173ffffffffffffffffffffffffffffffffffffffff1603610b8e5760006040517f1e4fbdf7000000000000000000000000000000000000000000000000000000008152600401610b859190611ff2565b60405180910390fd5b610b97816110d0565b50565b6000634906490660e01b7bffffffffffffffffffffffffffffffffffffffffffffffffffffffff1916827bffffffffffffffffffffffffffffffffffffffffffffffffffffffff19161480610bf45750610bf3826115ed565b5b9050919050565b600080610c07836116cf565b9050600073ffffffffffffffffffffffffffffffffffffffff168173ffffffffffffffffffffffffffffffffffffffff1603610c7a57826040517f7e273289000000000000000000000000000000000000000000000000000000008152600401610c719190611e8b565b60405180910390fd5b80915050919050565b60006004600083815260200190815260200160002060009054906101000a900473ffffffffffffffffffffffffffffffffffffffff169050919050565b600033905090565b610cd5838383600161170c565b505050565b600080610ce6846116cf565b9050600073ffffffffffffffffffffffffffffffffffffffff168373ffffffffffffffffffffffffffffffffffffffff1614610d2857610d278184866118d1565b5b600073ffffffffffffffffffffffffffffffffffffffff168173ffffffffffffffffffffffffffffffffffffffff1614610db957610d6a60008560008061170c565b6001600360008373ffffffffffffffffffffffffffffffffffffffff1673ffffffffffffffffffffffffffffffffffffffff168152602001908152602001600020600082825403925050819055505b600073ffffffffffffffffffffffffffffffffffffffff168573ffffffffffffffffffffffffffffffffffffffff1614610e3c576001600360008773ffffffffffffffffffffffffffffffffffffffff1673ffffffffffffffffffffffffffffffffffffffff168152602001908152602001600020600082825401925050819055505b846002600086815260200190815260200160002060006101000a81548173ffffffffffffffffffffffffffffffffffffffff021916908373ffffffffffffffffffffffffffffffffffffffff160217905550838573ffffffffffffffffffffffffffffffffffffffff168273ffffffffffffffffffffffffffffffffffffffff167fddf252ad1be2c89b69c2b068fc378daa952ba7f163c4a11628f55a4df523b3ef60405160405180910390a4809150509392505050565b600073ffffffffffffffffffffffffffffffffffffffff168273ffffffffffffffffffffffffffffffffffffffff1603610f665760006040517f64a0ae92000000000000000000000000000000000000000000000000000000008152600401610f5d9190611ff2565b60405180910390fd5b6000610f7483836000610cda565b9050600073ffffffffffffffffffffffffffffffffffffffff168173ffffffffffffffffffffffffffffffffffffffff1614610fe85760006040517f73c6ac6e000000000000000000000000000000000000000000000000000000008152600401610fdf9190611ff2565b60405180910390fd5b505050565b8060066000848152602001908152602001600020908161100d9190612888565b507ff8e1a15aba9398e019f0b49df1a4fde98ee17ae345cb5f6b5e2c27f5033e8ce78260405161103d9190611e8b565b60405180910390a15050565b611051610cc0565b73ffffffffffffffffffffffffffffffffffffffff1661106f610918565b73ffffffffffffffffffffffffffffffffffffffff16146110ce57611092610cc0565b6040517f118cdaa70000000000000000000000000000000000000000000000000000000081526004016110c59190611ff2565b60405180910390fd5b565b6000600760009054906101000a900473ffffffffffffffffffffffffffffffffffffffff16905081600760006101000a81548173ffffffffffffffffffffffffffffffffffffffff021916908373ffffffffffffffffffffffffffffffffffffffff1602179055508173ffffffffffffffffffffffffffffffffffffffff168173ffffffffffffffffffffffffffffffffffffffff167f8be0079c531659141344cd1fd0a4f28419497f9722a3daafe3b4186f6b6457e060405160405180910390a35050565b600073ffffffffffffffffffffffffffffffffffffffff168273ffffffffffffffffffffffffffffffffffffffff160361120757816040517f5b08ba180000000000000000000000000000000000000000000000000000000081526004016111fe9190611ff2565b60405180910390fd5b80600560008573ffffffffffffffffffffffffffffffffffffffff1673ffffffffffffffffffffffffffffffffffffffff16815260200190815260200160002060008473ffffffffffffffffffffffffffffffffffffffff1673ffffffffffffffffffffffffffffffffffffffff16815260200190815260200160002060006101000a81548160ff0219169083151502179055508173ffffffffffffffffffffffffffffffffffffffff168373ffffffffffffffffffffffffffffffffffffffff167f17307eab39ab6107e8899845ad3d59bd9653f200f220920489ca2b5937696c31836040516112f89190611e57565b60405180910390a3505050565b60008373ffffffffffffffffffffffffffffffffffffffff163b11156114b6578273ffffffffffffffffffffffffffffffffffffffff1663150b7a02611349610cc0565b8685856040518563ffffffff1660e01b815260040161136b94939291906129af565b6020604051808303816000875af19250505080156113a757506040513d601f19601f820116820180604052508101906113a49190612a10565b60015b61142b573d80600081146113d7576040519150601f19603f3d011682016040523d82523d6000602084013e6113dc565b606091505b50600081510361142357836040517f64a0ae9200000000000000000000000000000000000000000000000000000000815260040161141a9190611ff2565b60405180910390fd5b805181602001fd5b63150b7a0260e01b7bffffffffffffffffffffffffffffffffffffffffffffffffffffffff1916817bffffffffffffffffffffffffffffffffffffffffffffffffffffffff1916146114b457836040517f64a0ae920000000000000000000000000000000000000000000000000000000081526004016114ab9190611ff2565b60405180910390fd5b505b50505050565b60606114c782610bfb565b5060006006600084815260200190815260200160002080546114e8906124d2565b80601f0160208091040260200160405190810160405280929190818152602001828054611514906124d2565b80156115615780601f1061153657610100808354040283529160200191611561565b820191906000526020600020905b81548152906001019060200180831161154457829003601f168201915b505050505090506000611572611995565b905060008151036115875781925050506115ca565b6000825111156115bc5780826040516020016115a4929190612a3d565b604051602081830303815290604052925050506115ca565b6115c5846119d2565b925050505b919050565b6115e9828260405180602001604052806000815250611a3b565b5050565b60007f80ac58cd000000000000000000000000000000000000000000000000000000007bffffffffffffffffffffffffffffffffffffffffffffffffffffffff1916827bffffffffffffffffffffffffffffffffffffffffffffffffffffffff191614806116b857507f5b5e139f000000000000000000000000000000000000000000000000000000007bffffffffffffffffffffffffffffffffffffffffffffffffffffffff1916827bffffffffffffffffffffffffffffffffffffffffffffffffffffffff1916145b806116c857506116c782611a57565b5b9050919050565b60006002600083815260200190815260200160002060009054906101000a900473ffffffffffffffffffffffffffffffffffffffff169050919050565b80806117455750600073ffffffffffffffffffffffffffffffffffffffff168273ffffffffffffffffffffffffffffffffffffffff1614155b1561187957600061175584610bfb565b9050600073ffffffffffffffffffffffffffffffffffffffff168373ffffffffffffffffffffffffffffffffffffffff16141580156117c057508273ffffffffffffffffffffffffffffffffffffffff168173ffffffffffffffffffffffffffffffffffffffff1614155b80156117d357506117d18184610a80565b155b1561181557826040517fa9fbf51f00000000000000000000000000000000000000000000000000000000815260040161180c9190611ff2565b60405180910390fd5b811561187757838573ffffffffffffffffffffffffffffffffffffffff168273ffffffffffffffffffffffffffffffffffffffff167f8c5be1e5ebec7d5bd14f71427d1e84f3dd0314c0f7b2291e5b200ac8c7c3b92560405160405180910390a45b505b836004600085815260200190815260200160002060006101000a81548173ffffffffffffffffffffffffffffffffffffffff021916908373ffffffffffffffffffffffffffffffffffffffff16021790555050505050565b6118dc838383611ac1565b61199057600073ffffffffffffffffffffffffffffffffffffffff168373ffffffffffffffffffffffffffffffffffffffff160361195157806040517f7e2732890000000000000000000000000000000000000000000000000000000081526004016119489190611e8b565b60405180910390fd5b81816040517f177e802f000000000000000000000000000000000000000000000000000000008152600401611987929190612a61565b60405180910390fd5b505050565b60606040518060400160405280600781526020017f697066733a2f2f00000000000000000000000000000000000000000000000000815250905090565b60606119dd82610bfb565b5060006119e8611995565b90506000815111611a085760405180602001604052806000815250611a33565b80611a1284611b82565b604051602001611a23929190612a3d565b6040516020818303038152906040525b915050919050565b611a458383610ef4565b611a526000848484611305565b505050565b60007f01ffc9a7000000000000000000000000000000000000000000000000000000007bffffffffffffffffffffffffffffffffffffffffffffffffffffffff1916827bffffffffffffffffffffffffffffffffffffffffffffffffffffffff1916149050919050565b60008073ffffffffffffffffffffffffffffffffffffffff168373ffffffffffffffffffffffffffffffffffffffff1614158015611b7957508273ffffffffffffffffffffffffffffffffffffffff168473ffffffffffffffffffffffffffffffffffffffff161480611b3a5750611b398484610a80565b5b80611b7857508273ffffffffffffffffffffffffffffffffffffffff16611b6083610c83565b73ffffffffffffffffffffffffffffffffffffffff16145b5b90509392505050565b606060006001611b9184611c50565b01905060008167ffffffffffffffff811115611bb057611baf6120d6565b5b6040519080825280601f01601f191660200182016040528015611be25781602001600182028036833780820191505090505b509050600082602001820190505b600115611c45578080600190039150507f3031323334353637383961626364656600000000000000000000000000000000600a86061a8153600a8581611c3957611c38612a8a565b5b04945060008503611bf0575b819350505050919050565b600080600090507a184f03e93ff9f4daa797ed6e38ed64bf6a1f0100000000000000008310611cae577a184f03e93ff9f4daa797ed6e38ed64bf6a1f0100000000000000008381611ca457611ca3612a8a565b5b0492506040810190505b6d04ee2d6d415b85acef81000000008310611ceb576d04ee2d6d415b85acef81000000008381611ce157611ce0612a8a565b5b0492506020810190505b662386f26fc100008310611d1a57662386f26fc100008381611d1057611d0f612a8a565b5b0492506010810190505b6305f5e1008310611d43576305f5e1008381611d3957611d38612a8a565b5b0492506008810190505b6127108310611d68576127108381611d5e57611d5d612a8a565b5b0492506004810190505b60648310611d8b5760648381611d8157611d80612a8a565b5b0492506002810190505b600a8310611d9a576001810190505b80915050919050565b6000604051905090565b600080fd5b600080fd5b60007fffffffff0000000000000000000000000000000000000000000000000000000082169050919050565b611dec81611db7565b8114611df757600080fd5b50565b600081359050611e0981611de3565b92915050565b600060208284031215611e2557611e24611dad565b5b6000611e3384828501611dfa565b91505092915050565b60008115159050919050565b611e5181611e3c565b82525050565b6000602082019050611e6c6000830184611e48565b92915050565b6000819050919050565b611e8581611e72565b82525050565b6000602082019050611ea06000830184611e7c565b92915050565b600081519050919050565b600082825260208201905092915050565b60005b83811015611ee0578082015181840152602081019050611ec5565b60008484015250505050565b6000601f19601f8301169050919050565b6000611f0882611ea6565b611f128185611eb1565b9350611f22818560208601611ec2565b611f2b81611eec565b840191505092915050565b60006020820190508181036000830152611f508184611efd565b905092915050565b611f6181611e72565b8114611f6c57600080fd5b50565b600081359050611f7e81611f58565b92915050565b600060208284031215611f9a57611f99611dad565b5b6000611fa884828501611f6f565b91505092915050565b600073ffffffffffffffffffffffffffffffffffffffff82169050919050565b6000611fdc82611fb1565b9050919050565b611fec81611fd1565b82525050565b60006020820190506120076000830184611fe3565b92915050565b61201681611fd1565b811461202157600080fd5b50565b6000813590506120338161200d565b92915050565b600080604083850312156120505761204f611dad565b5b600061205e85828601612024565b925050602061206f85828601611f6f565b9150509250929050565b60008060006060848603121561209257612091611dad565b5b60006120a086828701612024565b93505060206120b186828701612024565b92505060406120c286828701611f6f565b9150509250925092565b600080fd5b600080fd5b7f4e487b7100000000000000000000000000000000000000000000000000000000600052604160045260246000fd5b61210e82611eec565b810181811067ffffffffffffffff8211171561212d5761212c6120d6565b5b80604052505050565b6000612140611da3565b905061214c8282612105565b919050565b600067ffffffffffffffff82111561216c5761216b6120d6565b5b61217582611eec565b9050602081019050919050565b82818337600083830152505050565b60006121a461219f84612151565b612136565b9050828152602081018484840111156121c0576121bf6120d1565b5b6121cb848285612182565b509392505050565b600082601f8301126121e8576121e76120cc565b5b81356121f8848260208601612191565b91505092915050565b6000806040838503121561221857612217611dad565b5b600061222685828601612024565b925050602083013567ffffffffffffffff81111561224757612246611db2565b5b612253858286016121d3565b9150509250929050565b60006020828403121561227357612272611dad565b5b600061228184828501612024565b91505092915050565b6000602082840312156122a05761229f611dad565b5b600082013567ffffffffffffffff8111156122be576122bd611db2565b5b6122ca848285016121d3565b91505092915050565b6122dc81611e3c565b81146122e757600080fd5b50565b6000813590506122f9816122d3565b92915050565b6000806040838503121561231657612315611dad565b5b600061232485828601612024565b9250506020612335858286016122ea565b9150509250929050565b600067ffffffffffffffff82111561235a576123596120d6565b5b61236382611eec565b9050602081019050919050565b600061238361237e8461233f565b612136565b90508281526020810184848401111561239f5761239e6120d1565b5b6123aa848285612182565b509392505050565b600082601f8301126123c7576123c66120cc565b5b81356123d7848260208601612370565b91505092915050565b600080600080608085870312156123fa576123f9611dad565b5b600061240887828801612024565b945050602061241987828801612024565b935050604061242a87828801611f6f565b925050606085013567ffffffffffffffff81111561244b5761244a611db2565b5b612457878288016123b2565b91505092959194509250565b6000806040838503121561247a57612479611dad565b5b600061248885828601612024565b925050602061249985828601612024565b9150509250929050565b7f4e487b7100000000000000000000000000000000000000000000000000000000600052602260045260246000fd5b600060028204905060018216806124ea57607f821691505b6020821081036124fd576124fc6124a3565b5b50919050565b60006060820190506125186000830186611fe3565b6125256020830185611e7c565b6125326040830184611fe3565b949350505050565b600081905092915050565b600061255082611ea6565b61255a818561253a565b935061256a818560208601611ec2565b80840191505092915050565b60006125828284612545565b915081905092915050565b7f4e465420616c7265616479206d696e7465642100000000000000000000000000600082015250565b60006125c3601383611eb1565b91506125ce8261258d565b602082019050919050565b600060208201905081810360008301526125f2816125b6565b9050919050565b7f496e73756666696369656e7420616d6f756e7421000000000000000000000000600082015250565b600061262f601483611eb1565b915061263a826125f9565b602082019050919050565b6000602082019050818103600083015261265e81612622565b9050919050565b7f4e487b7100000000000000000000000000000000000000000000000000000000600052601160045260246000fd5b600061269f82611e72565b91507fffffffffffffffffffffffffffffffffffffffffffffffffffffffffffffffff82036126d1576126d0612665565b5b600182019050919050565b60008190508160005260206000209050919050565b60006020601f8301049050919050565b600082821b905092915050565b60006008830261273e7fffffffffffffffffffffffffffffffffffffffffffffffffffffffffffffffff82612701565b6127488683612701565b95508019841693508086168417925050509392505050565b6000819050919050565b600061278561278061277b84611e72565b612760565b611e72565b9050919050565b6000819050919050565b61279f8361276a565b6127b36127ab8261278c565b84845461270e565b825550505050565b600090565b6127c86127bb565b6127d3818484612796565b505050565b5b818110156127f7576127ec6000826127c0565b6001810190506127d9565b5050565b601f82111561283c5761280d816126dc565b612816846126f1565b81016020851015612825578190505b612839612831856126f1565b8301826127d8565b50505b505050565b600082821c905092915050565b600061285f60001984600802612841565b1980831691505092915050565b6000612878838361284e565b9150826002028217905092915050565b61289182611ea6565b67ffffffffffffffff8111156128aa576128a96120d6565b5b6128b482546124d2565b6128bf8282856127fb565b600060209050601f8311600181146128f257600084156128e0578287015190505b6128ea858261286c565b865550612952565b601f198416612900866126dc565b60005b8281101561292857848901518255600182019150602085019450602081019050612903565b868310156129455784890151612941601f89168261284e565b8355505b6001600288020188555050505b505050505050565b600081519050919050565b600082825260208201905092915050565b60006129818261295a565b61298b8185612965565b935061299b818560208601611ec2565b6129a481611eec565b840191505092915050565b60006080820190506129c46000830187611fe3565b6129d16020830186611fe3565b6129de6040830185611e7c565b81810360608301526129f08184612976565b905095945050505050565b600081519050612a0a81611de3565b92915050565b600060208284031215612a2657612a25611dad565b5b6000612a34848285016129fb565b91505092915050565b6000612a498285612545565b9150612a558284612545565b91508190509392505050565b6000604082019050612a766000830185611fe3565b612a836020830184611e7c565b9392505050565b7f4e487b7100000000000000000000000000000000000000000000000000000000600052601260045260246000fdfea26469706673582212207f499fe23e0be97c03841e2cfcc52f0d56efefba50fef7b26885e54a9e463ec164736f6c63430008140033",
  "linkReferences": {},
  "deployedLinkReferences": {}
}